{
  "contractName": "AttendanceSystem",
  "abi": [
    {
      "inputs": [],
      "stateMutability": "nonpayable",
      "type": "constructor"
    },
    {
      "inputs": [
        {
          "internalType": "address",
          "name": "",
          "type": "address"
        }
      ],
      "name": "admins",
      "outputs": [
        {
          "internalType": "string",
          "name": "name",
          "type": "string"
        },
        {
          "internalType": "string",
          "name": "college",
          "type": "string"
        },
        {
          "internalType": "bool",
          "name": "exists",
          "type": "bool"
        }
      ],
      "stateMutability": "view",
      "type": "function",
      "constant": true
    },
    {
      "inputs": [
        {
          "internalType": "uint256",
          "name": "",
          "type": "uint256"
        }
      ],
      "name": "departmentKeys",
      "outputs": [
        {
          "internalType": "string",
          "name": "",
          "type": "string"
        }
      ],
      "stateMutability": "view",
      "type": "function",
      "constant": true
    },
    {
      "inputs": [
        {
          "internalType": "string",
          "name": "",
          "type": "string"
        },
        {
          "internalType": "uint256",
          "name": "",
          "type": "uint256"
        }
      ],
      "name": "departmentStudents",
      "outputs": [
        {
          "internalType": "address",
          "name": "",
          "type": "address"
        }
      ],
      "stateMutability": "view",
      "type": "function",
      "constant": true
    },
    {
      "inputs": [
        {
          "internalType": "string",
          "name": "",
          "type": "string"
        }
      ],
      "name": "departments",
      "outputs": [
        {
          "internalType": "string",
          "name": "name",
          "type": "string"
        },
        {
          "internalType": "bool",
          "name": "exists",
          "type": "bool"
        }
      ],
      "stateMutability": "view",
      "type": "function",
      "constant": true
    },
    {
      "inputs": [
        {
          "internalType": "address",
          "name": "",
          "type": "address"
        }
      ],
      "name": "faculties",
      "outputs": [
        {
          "internalType": "string",
          "name": "name",
          "type": "string"
        },
        {
          "internalType": "string",
          "name": "department",
          "type": "string"
        },
        {
          "internalType": "bool",
          "name": "exists",
          "type": "bool"
        }
      ],
      "stateMutability": "view",
      "type": "function",
      "constant": true
    },
    {
      "inputs": [
        {
          "internalType": "uint256",
          "name": "",
          "type": "uint256"
        }
      ],
      "name": "facultyAddresses",
      "outputs": [
        {
          "internalType": "address",
          "name": "",
          "type": "address"
        }
      ],
      "stateMutability": "view",
      "type": "function",
      "constant": true
    },
    {
      "inputs": [],
      "name": "owner",
      "outputs": [
        {
          "internalType": "address",
          "name": "",
          "type": "address"
        }
      ],
      "stateMutability": "view",
      "type": "function",
      "constant": true
    },
    {
      "inputs": [
        {
          "internalType": "address",
          "name": "",
          "type": "address"
        },
        {
          "internalType": "uint256",
          "name": "",
          "type": "uint256"
        }
      ],
      "name": "perStudentAttendances",
      "outputs": [
        {
          "internalType": "string",
          "name": "studentSubjectCode",
          "type": "string"
        },
        {
          "internalType": "string",
          "name": "studentSubjectName",
          "type": "string"
        },
        {
          "internalType": "string",
          "name": "studentLectureTime",
          "type": "string"
        },
        {
          "internalType": "uint256",
          "name": "studentId",
          "type": "uint256"
        },
        {
          "internalType": "bool",
          "name": "studentAttendanceStatus",
          "type": "bool"
        }
      ],
      "stateMutability": "view",
      "type": "function",
      "constant": true
    },
    {
      "inputs": [
        {
          "internalType": "uint256",
          "name": "",
          "type": "uint256"
        }
      ],
      "name": "studentAddresses",
      "outputs": [
        {
          "internalType": "address",
          "name": "",
          "type": "address"
        }
      ],
      "stateMutability": "view",
      "type": "function",
      "constant": true
    },
    {
      "inputs": [
        {
          "internalType": "uint256",
          "name": "",
          "type": "uint256"
        },
        {
          "internalType": "uint256",
          "name": "",
          "type": "uint256"
        }
      ],
      "name": "studentAttendance",
      "outputs": [
        {
          "internalType": "string",
          "name": "subjectCode",
          "type": "string"
        },
        {
          "internalType": "string",
          "name": "subjectName",
          "type": "string"
        },
        {
          "internalType": "string",
          "name": "lectureTime",
          "type": "string"
        }
      ],
      "stateMutability": "view",
      "type": "function",
      "constant": true
    },
    {
      "inputs": [
        {
          "internalType": "address",
          "name": "",
          "type": "address"
        }
      ],
      "name": "students",
      "outputs": [
        {
          "internalType": "string",
          "name": "studentId",
          "type": "string"
        },
        {
          "internalType": "string",
          "name": "name",
          "type": "string"
        },
        {
          "internalType": "string",
          "name": "department",
          "type": "string"
        },
        {
          "internalType": "bool",
          "name": "exists",
          "type": "bool"
        }
      ],
      "stateMutability": "view",
      "type": "function",
      "constant": true
    },
    {
      "inputs": [
        {
          "internalType": "string",
          "name": "",
          "type": "string"
        }
      ],
      "name": "subjects",
      "outputs": [
        {
          "internalType": "string",
          "name": "subCode",
          "type": "string"
        },
        {
          "internalType": "string",
          "name": "subName",
          "type": "string"
        },
        {
          "internalType": "bool",
          "name": "exists",
          "type": "bool"
        }
      ],
      "stateMutability": "view",
      "type": "function",
      "constant": true
    },
    {
      "inputs": [
        {
          "internalType": "address",
          "name": "account",
          "type": "address"
        }
      ],
      "name": "isAdmin",
      "outputs": [
        {
          "internalType": "bool",
          "name": "",
          "type": "bool"
        }
      ],
      "stateMutability": "view",
      "type": "function",
      "constant": true
    },
    {
      "inputs": [
        {
          "internalType": "address",
          "name": "account",
          "type": "address"
        }
      ],
      "name": "isFaculty",
      "outputs": [
        {
          "internalType": "bool",
          "name": "",
          "type": "bool"
        }
      ],
      "stateMutability": "view",
      "type": "function",
      "constant": true
    },
    {
      "inputs": [
        {
          "internalType": "address",
          "name": "account",
          "type": "address"
        }
      ],
      "name": "isStudent",
      "outputs": [
        {
          "internalType": "bool",
          "name": "",
          "type": "bool"
        }
      ],
      "stateMutability": "view",
      "type": "function",
      "constant": true
    },
    {
      "inputs": [
        {
          "internalType": "string",
          "name": "_name",
          "type": "string"
        },
        {
          "internalType": "string",
          "name": "_college",
          "type": "string"
        }
      ],
      "name": "registerAdmin",
      "outputs": [],
      "stateMutability": "nonpayable",
      "type": "function"
    },
    {
      "inputs": [
        {
          "internalType": "string",
          "name": "deptCode",
          "type": "string"
        },
        {
          "internalType": "string",
          "name": "deptName",
          "type": "string"
        }
      ],
      "name": "addDepartment",
      "outputs": [],
      "stateMutability": "nonpayable",
      "type": "function"
    },
    {
      "inputs": [
        {
          "internalType": "string",
          "name": "deptCode",
          "type": "string"
        },
        {
          "internalType": "string",
          "name": "subCode",
          "type": "string"
        },
        {
          "internalType": "string",
          "name": "subName",
          "type": "string"
        }
      ],
      "name": "addSubject",
      "outputs": [],
      "stateMutability": "nonpayable",
      "type": "function"
    },
    {
      "inputs": [
        {
          "internalType": "address",
          "name": "facultyAddress",
          "type": "address"
        },
        {
          "internalType": "string",
          "name": "facultyName",
          "type": "string"
        },
        {
          "internalType": "string",
          "name": "facultyDept",
          "type": "string"
        }
      ],
      "name": "registerFaculty",
      "outputs": [],
      "stateMutability": "nonpayable",
      "type": "function"
    },
    {
      "inputs": [
        {
          "internalType": "address",
          "name": "studentAddress",
          "type": "address"
        },
        {
          "internalType": "string",
          "name": "studentId",
          "type": "string"
        },
        {
          "internalType": "string",
          "name": "studentName",
          "type": "string"
        },
        {
          "internalType": "string",
          "name": "studentDept",
          "type": "string"
        }
      ],
      "name": "registerStudent",
      "outputs": [],
      "stateMutability": "nonpayable",
      "type": "function"
    },
    {
      "inputs": [],
      "name": "getDepartmentCount",
      "outputs": [
        {
          "internalType": "uint256",
          "name": "",
          "type": "uint256"
        }
      ],
      "stateMutability": "view",
      "type": "function",
      "constant": true
    },
    {
      "inputs": [],
      "name": "getFacultyCount",
      "outputs": [
        {
          "internalType": "uint256",
          "name": "",
          "type": "uint256"
        }
      ],
      "stateMutability": "view",
      "type": "function",
      "constant": true
    },
    {
      "inputs": [],
      "name": "getStudentCount",
      "outputs": [
        {
          "internalType": "uint256",
          "name": "",
          "type": "uint256"
        }
      ],
      "stateMutability": "view",
      "type": "function",
      "constant": true
    },
    {
      "inputs": [
        {
          "internalType": "string",
          "name": "departmentCode",
          "type": "string"
        }
      ],
      "name": "getStudentsByDepartment",
      "outputs": [
        {
          "components": [
            {
              "internalType": "string",
              "name": "studentId",
              "type": "string"
            },
            {
              "internalType": "string",
              "name": "name",
              "type": "string"
            },
            {
              "internalType": "string",
              "name": "department",
              "type": "string"
            },
            {
              "internalType": "bool",
              "name": "exists",
              "type": "bool"
            }
          ],
          "internalType": "struct AttendanceSystem.Student[]",
          "name": "",
          "type": "tuple[]"
        }
      ],
      "stateMutability": "view",
      "type": "function",
      "constant": true
    },
    {
      "inputs": [
        {
          "internalType": "string",
          "name": "subjectCode",
          "type": "string"
        },
        {
          "internalType": "string",
          "name": "subjectName",
          "type": "string"
        },
        {
          "internalType": "string",
          "name": "lectureTime",
          "type": "string"
        },
        {
          "internalType": "uint256[]",
          "name": "studentIds",
          "type": "uint256[]"
        },
        {
          "internalType": "bool[]",
          "name": "statuses",
          "type": "bool[]"
        }
      ],
      "name": "markAttendance",
      "outputs": [],
      "stateMutability": "nonpayable",
      "type": "function"
    },
    {
      "inputs": [
        {
          "internalType": "address",
          "name": "studentAddress",
          "type": "address"
        }
      ],
      "name": "getStudentDetails",
      "outputs": [
        {
          "internalType": "string",
          "name": "",
          "type": "string"
        },
        {
          "internalType": "string",
          "name": "",
          "type": "string"
        },
        {
          "internalType": "string",
          "name": "",
          "type": "string"
        }
      ],
      "stateMutability": "view",
      "type": "function",
      "constant": true
    },
    {
      "inputs": [
        {
          "internalType": "address",
          "name": "studentAddress",
          "type": "address"
        }
      ],
      "name": "getStudentAttendance",
      "outputs": [
        {
          "components": [
            {
              "internalType": "string",
              "name": "studentSubjectCode",
              "type": "string"
            },
            {
              "internalType": "string",
              "name": "studentSubjectName",
              "type": "string"
            },
            {
              "internalType": "string",
              "name": "studentLectureTime",
              "type": "string"
            },
            {
              "internalType": "uint256",
              "name": "studentId",
              "type": "uint256"
            },
            {
              "internalType": "bool",
              "name": "studentAttendanceStatus",
              "type": "bool"
            }
          ],
          "internalType": "struct AttendanceSystem.PerStudentAttendance[]",
          "name": "",
          "type": "tuple[]"
        }
      ],
      "stateMutability": "view",
      "type": "function",
      "constant": true
    }
  ],
  "bytecode": "0x60806040523480156200001157600080fd5b5033600b60006101000a81548173ffffffffffffffffffffffffffffffffffffffff021916908373ffffffffffffffffffffffffffffffffffffffff16021790555060405180606001604052806040518060400160405280600b81526020017f53757065722041646d696e0000000000000000000000000000000000000000008152508152602001604051806020016040528060008152508152602001600115158152506000803373ffffffffffffffffffffffffffffffffffffffff1673ffffffffffffffffffffffffffffffffffffffff1681526020019081526020016000206000820151816000019080519060200190620001119291906200015a565b506020820151816001019080519060200190620001309291906200015a565b5060408201518160020160006101000a81548160ff0219169083151502179055509050506200026f565b82805462000168906200020a565b90600052602060002090601f0160209004810192826200018c5760008555620001d8565b82601f10620001a757805160ff1916838001178555620001d8565b82800160010185558215620001d8579182015b82811115620001d7578251825591602001919060010190620001ba565b5b509050620001e79190620001eb565b5090565b5b8082111562000206576000816000905550600101620001ec565b5090565b600060028204905060018216806200022357607f821691505b602082108114156200023a576200023962000240565b5b50919050565b7f4e487b7100000000000000000000000000000000000000000000000000000000600052602260045260246000fd5b614120806200027f6000396000f3fe608060405234801561001057600080fd5b50600436106101a95760003560e01c806382f7d392116100f9578063b5fdf25211610097578063d0b371bd11610071578063d0b371bd1461055f578063f8f98b7914610591578063fa3e4936146105ad578063fe290423146105de576101a9565b8063b5fdf252146104cb578063c0713b9c146104fd578063c2a787021461052f576101a9565b8063a6c807a9116100d3578063a6c807a914610430578063ab0781bd14610463578063b1e12fd01461047f578063b5ab682d1461049b576101a9565b806382f7d392146103c65780638da5cb5b146103f657806394610cd414610414576101a9565b806326360f4d1161016657806341e0c4071161014057806341e0c40714610328578063429b62e514610346578063551c59c61461037857806379089987146103a8576101a9565b806326360f4d146102ac5780632f7bb5a5146102dc578063411e00aa1461030c576101a9565b806309db2b79146101ae57806314e1bf02146101e257806314fbedd9146102125780631781498b146102425780631e91297c1461026057806324d7806c1461027c575b600080fd5b6101c860048036038101906101c391906130d3565b610610565b6040516101d9959493929190613a1c565b60405180910390f35b6101fc60048036038101906101f79190612f80565b610808565b6040516102099190613880565b60405180910390f35b61022c60048036038101906102279190613342565b610a81565b6040516102399190613865565b60405180910390f35b61024a610ae5565b6040516102579190613bc4565b60405180910390f35b61027a60048036038101906102759190613028565b610af2565b005b61029660048036038101906102919190612f80565b610e43565b6040516102a391906138c4565b60405180910390f35b6102c660048036038101906102c19190613396565b610e9b565b6040516102d39190613865565b60405180910390f35b6102f660048036038101906102f19190613396565b610eda565b60405161030391906138df565b60405180910390f35b61032660048036038101906103219190613150565b610f86565b005b610330611139565b60405161033d9190613bc4565b60405180910390f35b610360600480360381019061035b9190612f80565b611146565b60405161036f93929190613931565b60405180910390f35b610392600480360381019061038d919061310f565b61128d565b60405161039f91906138a2565b60405180910390f35b6103b0611682565b6040516103bd9190613bc4565b60405180910390f35b6103e060048036038101906103db9190612f80565b61168f565b6040516103ed91906138c4565b60405180910390f35b6103fe6116e8565b60405161040b9190613865565b60405180910390f35b61042e600480360381019061042991906131bc565b61170e565b005b61044a60048036038101906104459190612f80565b6118a9565b60405161045a94939291906139c2565b60405180910390f35b61047d60048036038101906104789190612fa9565b611a7e565b005b61049960048036038101906104949190613253565b611d2c565b005b6104b560048036038101906104b09190613396565b612186565b6040516104c29190613865565b60405180910390f35b6104e560048036038101906104e09190612f80565b6121c5565b6040516104f493929190613931565b60405180910390f35b610517600480360381019061051291906133bf565b61230c565b60405161052693929190613976565b60405180910390f35b61054960048036038101906105449190612f80565b6124eb565b60405161055691906138c4565b60405180910390f35b61057960048036038101906105749190612f80565b612544565b60405161058893929190613976565b60405180910390f35b6105ab60048036038101906105a69190613150565b612814565b005b6105c760048036038101906105c2919061310f565b612961565b6040516105d5929190613901565b60405180910390f35b6105f860048036038101906105f3919061310f565b612a30565b60405161060793929190613931565b60405180910390f35b6007602052816000526040600020818154811061062c57600080fd5b90600052602060002090600502016000915091505080600001805461065090613dc1565b80601f016020809104026020016040519081016040528092919081815260200182805461067c90613dc1565b80156106c95780601f1061069e576101008083540402835291602001916106c9565b820191906000526020600020905b8154815290600101906020018083116106ac57829003601f168201915b5050505050908060010180546106de90613dc1565b80601f016020809104026020016040519081016040528092919081815260200182805461070a90613dc1565b80156107575780601f1061072c57610100808354040283529160200191610757565b820191906000526020600020905b81548152906001019060200180831161073a57829003601f168201915b50505050509080600201805461076c90613dc1565b80601f016020809104026020016040519081016040528092919081815260200182805461079890613dc1565b80156107e55780601f106107ba576101008083540402835291602001916107e5565b820191906000526020600020905b8154815290600101906020018083116107c857829003601f168201915b5050505050908060030154908060040160009054906101000a900460ff16905085565b6060600760008373ffffffffffffffffffffffffffffffffffffffff1673ffffffffffffffffffffffffffffffffffffffff168152602001908152602001600020805480602002602001604051908101604052809291908181526020016000905b82821015610a7657838290600052602060002090600502016040518060a001604052908160008201805461089c90613dc1565b80601f01602080910402602001604051908101604052809291908181526020018280546108c890613dc1565b80156109155780601f106108ea57610100808354040283529160200191610915565b820191906000526020600020905b8154815290600101906020018083116108f857829003601f168201915b5050505050815260200160018201805461092e90613dc1565b80601f016020809104026020016040519081016040528092919081815260200182805461095a90613dc1565b80156109a75780601f1061097c576101008083540402835291602001916109a7565b820191906000526020600020905b81548152906001019060200180831161098a57829003601f168201915b505050505081526020016002820180546109c090613dc1565b80601f01602080910402602001604051908101604052809291908181526020018280546109ec90613dc1565b8015610a395780601f10610a0e57610100808354040283529160200191610a39565b820191906000526020600020905b815481529060010190602001808311610a1c57829003601f168201915b50505050508152602001600382015481526020016004820160009054906101000a900460ff16151515158152505081526020019060010190610869565b505050509050919050565b6005828051602081018201805184825260208301602085012081835280955050505050508181548110610ab357600080fd5b906000526020600020016000915091509054906101000a900473ffffffffffffffffffffffffffffffffffffffff1681565b6000600980549050905090565b6000803373ffffffffffffffffffffffffffffffffffffffff1673ffffffffffffffffffffffffffffffffffffffff16815260200190815260200160002060020160009054906101000a900460ff16610b80576040517f08c379a0000000000000000000000000000000000000000000000000000000008152600401610b7790613ae4565b60405180910390fd5b600260008573ffffffffffffffffffffffffffffffffffffffff1673ffffffffffffffffffffffffffffffffffffffff16815260200190815260200160002060030160009054906101000a900460ff1615610c10576040517f08c379a0000000000000000000000000000000000000000000000000000000008152600401610c0790613b44565b60405180910390fd5b600381604051610c20919061384e565b908152602001604051809103902060010160009054906101000a900460ff16610c7e576040517f08c379a0000000000000000000000000000000000000000000000000000000008152600401610c7590613b24565b60405180910390fd5b604051806080016040528084815260200183815260200182815260200160011515815250600260008673ffffffffffffffffffffffffffffffffffffffff1673ffffffffffffffffffffffffffffffffffffffff1681526020019081526020016000206000820151816000019080519060200190610cfd929190612b8d565b506020820151816001019080519060200190610d1a929190612b8d565b506040820151816002019080519060200190610d37929190612b8d565b5060608201518160030160006101000a81548160ff021916908315150217905550905050600581604051610d6b919061384e565b9081526020016040518091039020849080600181540180825580915050600190039060005260206000200160009091909190916101000a81548173ffffffffffffffffffffffffffffffffffffffff021916908373ffffffffffffffffffffffffffffffffffffffff160217905550600a849080600181540180825580915050600190039060005260206000200160009091909190916101000a81548173ffffffffffffffffffffffffffffffffffffffff021916908373ffffffffffffffffffffffffffffffffffffffff16021790555050505050565b60008060008373ffffffffffffffffffffffffffffffffffffffff1673ffffffffffffffffffffffffffffffffffffffff16815260200190815260200160002060020160009054906101000a900460ff169050919050565b60098181548110610eab57600080fd5b906000526020600020016000915054906101000a900473ffffffffffffffffffffffffffffffffffffffff1681565b60088181548110610eea57600080fd5b906000526020600020016000915090508054610f0590613dc1565b80601f0160208091040260200160405190810160405280929190818152602001828054610f3190613dc1565b8015610f7e5780601f10610f5357610100808354040283529160200191610f7e565b820191906000526020600020905b815481529060010190602001808311610f6157829003601f168201915b505050505081565b6000803373ffffffffffffffffffffffffffffffffffffffff1673ffffffffffffffffffffffffffffffffffffffff16815260200190815260200160002060020160009054906101000a900460ff16611014576040517f08c379a000000000000000000000000000000000000000000000000000000000815260040161100b90613ae4565b60405180910390fd5b600382604051611024919061384e565b908152602001604051809103902060010160009054906101000a900460ff1615611083576040517f08c379a000000000000000000000000000000000000000000000000000000000815260040161107a90613b64565b60405180910390fd5b6040518060400160405280828152602001600115158152506003836040516110ab919061384e565b908152602001604051809103902060008201518160000190805190602001906110d5929190612b8d565b5060208201518160010160006101000a81548160ff021916908315150217905550905050600882908060018154018082558091505060019003906000526020600020016000909190919091509080519060200190611134929190612b8d565b505050565b6000600a80549050905090565b600060205280600052604060002060009150905080600001805461116990613dc1565b80601f016020809104026020016040519081016040528092919081815260200182805461119590613dc1565b80156111e25780601f106111b7576101008083540402835291602001916111e2565b820191906000526020600020905b8154815290600101906020018083116111c557829003601f168201915b5050505050908060010180546111f790613dc1565b80601f016020809104026020016040519081016040528092919081815260200182805461122390613dc1565b80156112705780601f1061124557610100808354040283529160200191611270565b820191906000526020600020905b81548152906001019060200180831161125357829003601f168201915b5050505050908060020160009054906101000a900460ff16905083565b606060006005836040516112a1919061384e565b908152602001604051809103902080548060200260200160405190810160405280929190818152602001828054801561132f57602002820191906000526020600020905b8160009054906101000a900473ffffffffffffffffffffffffffffffffffffffff1673ffffffffffffffffffffffffffffffffffffffff16815260200190600101908083116112e5575b505050505090506000600a8054905067ffffffffffffffff81111561137d577f4e487b7100000000000000000000000000000000000000000000000000000000600052604160045260246000fd5b6040519080825280602002602001820160405280156113b657816020015b6113a3612c13565b81526020019060019003908161139b5790505b50905060005b82518110156116775760026000848381518110611402577f4e487b7100000000000000000000000000000000000000000000000000000000600052603260045260246000fd5b602002602001015173ffffffffffffffffffffffffffffffffffffffff1673ffffffffffffffffffffffffffffffffffffffff16815260200190815260200160002060405180608001604052908160008201805461145f90613dc1565b80601f016020809104026020016040519081016040528092919081815260200182805461148b90613dc1565b80156114d85780601f106114ad576101008083540402835291602001916114d8565b820191906000526020600020905b8154815290600101906020018083116114bb57829003601f168201915b505050505081526020016001820180546114f190613dc1565b80601f016020809104026020016040519081016040528092919081815260200182805461151d90613dc1565b801561156a5780601f1061153f5761010080835404028352916020019161156a565b820191906000526020600020905b81548152906001019060200180831161154d57829003601f168201915b5050505050815260200160028201805461158390613dc1565b80601f01602080910402602001604051908101604052809291908181526020018280546115af90613dc1565b80156115fc5780601f106115d1576101008083540402835291602001916115fc565b820191906000526020600020905b8154815290600101906020018083116115df57829003601f168201915b505050505081526020016003820160009054906101000a900460ff161515151581525050828281518110611659577f4e487b7100000000000000000000000000000000000000000000000000000000600052603260045260246000fd5b6020026020010181905250808061166f90613e24565b9150506113bc565b508092505050919050565b6000600880549050905090565b6000600260008373ffffffffffffffffffffffffffffffffffffffff1673ffffffffffffffffffffffffffffffffffffffff16815260200190815260200160002060030160009054906101000a900460ff169050919050565b600b60009054906101000a900473ffffffffffffffffffffffffffffffffffffffff1681565b6000803373ffffffffffffffffffffffffffffffffffffffff1673ffffffffffffffffffffffffffffffffffffffff16815260200190815260200160002060020160009054906101000a900460ff1661179c576040517f08c379a000000000000000000000000000000000000000000000000000000000815260040161179390613ae4565b60405180910390fd5b6004836040516117ac919061384e565b908152602001604051809103902060020160009054906101000a900460ff161561180b576040517f08c379a000000000000000000000000000000000000000000000000000000000815260040161180290613a84565b60405180910390fd5b604051806060016040528083815260200182815260200160011515815250600484604051611839919061384e565b90815260200160405180910390206000820151816000019080519060200190611863929190612b8d565b506020820151816001019080519060200190611880929190612b8d565b5060408201518160020160006101000a81548160ff021916908315150217905550905050505050565b60026020528060005260406000206000915090508060000180546118cc90613dc1565b80601f01602080910402602001604051908101604052809291908181526020018280546118f890613dc1565b80156119455780601f1061191a57610100808354040283529160200191611945565b820191906000526020600020905b81548152906001019060200180831161192857829003601f168201915b50505050509080600101805461195a90613dc1565b80601f016020809104026020016040519081016040528092919081815260200182805461198690613dc1565b80156119d35780601f106119a8576101008083540402835291602001916119d3565b820191906000526020600020905b8154815290600101906020018083116119b657829003601f168201915b5050505050908060020180546119e890613dc1565b80601f0160208091040260200160405190810160405280929190818152602001828054611a1490613dc1565b8015611a615780601f10611a3657610100808354040283529160200191611a61565b820191906000526020600020905b815481529060010190602001808311611a4457829003601f168201915b5050505050908060030160009054906101000a900460ff16905084565b6000803373ffffffffffffffffffffffffffffffffffffffff1673ffffffffffffffffffffffffffffffffffffffff16815260200190815260200160002060020160009054906101000a900460ff16611b0c576040517f08c379a0000000000000000000000000000000000000000000000000000000008152600401611b0390613ae4565b60405180910390fd5b600160008473ffffffffffffffffffffffffffffffffffffffff1673ffffffffffffffffffffffffffffffffffffffff16815260200190815260200160002060020160009054906101000a900460ff1615611b9c576040517f08c379a0000000000000000000000000000000000000000000000000000000008152600401611b9390613ba4565b60405180910390fd5b600381604051611bac919061384e565b908152602001604051809103902060010160009054906101000a900460ff16611c0a576040517f08c379a0000000000000000000000000000000000000000000000000000000008152600401611c0190613b24565b60405180910390fd5b604051806060016040528083815260200182815260200160011515815250600160008573ffffffffffffffffffffffffffffffffffffffff1673ffffffffffffffffffffffffffffffffffffffff1681526020019081526020016000206000820151816000019080519060200190611c83929190612b8d565b506020820151816001019080519060200190611ca0929190612b8d565b5060408201518160020160006101000a81548160ff0219169083151502179055509050506009839080600181540180825580915050600190039060005260206000200160009091909190916101000a81548173ffffffffffffffffffffffffffffffffffffffff021916908373ffffffffffffffffffffffffffffffffffffffff160217905550505050565b600160003373ffffffffffffffffffffffffffffffffffffffff1673ffffffffffffffffffffffffffffffffffffffff16815260200190815260200160002060020160009054906101000a900460ff16611dbb576040517f08c379a0000000000000000000000000000000000000000000000000000000008152600401611db290613aa4565b60405180910390fd5b8051825114611dff576040517f08c379a0000000000000000000000000000000000000000000000000000000008152600401611df690613ac4565b60405180910390fd5b611e07612c3d565b85816000018190525084816020018190525083816040018190525082816060018190525081816080018190525060005b835181101561217d5760066000858381518110611e7d577f4e487b7100000000000000000000000000000000000000000000000000000000600052603260045260246000fd5b602002602001015181526020019081526020016000208290806001815401808255809150506001900390600052602060002090600502016000909190919091506000820151816000019080519060200190611ed9929190612b8d565b506020820151816001019080519060200190611ef6929190612b8d565b506040820151816002019080519060200190611f13929190612b8d565b506060820151816003019080519060200190611f30929190612c6c565b506080820151816004019080519060200190611f4d929190612cb9565b505050611f58612d5f565b826000015181600001819052508260200151816020018190525082604001518160400181905250848281518110611fb8577f4e487b7100000000000000000000000000000000000000000000000000000000600052603260045260246000fd5b6020026020010151816060018181525050838281518110612002577f4e487b7100000000000000000000000000000000000000000000000000000000600052603260045260246000fd5b602002602001015181608001901515908115158152505060076000600a8481548110612057577f4e487b7100000000000000000000000000000000000000000000000000000000600052603260045260246000fd5b9060005260206000200160009054906101000a900473ffffffffffffffffffffffffffffffffffffffff1673ffffffffffffffffffffffffffffffffffffffff1673ffffffffffffffffffffffffffffffffffffffff1681526020019081526020016000208190806001815401808255809150506001900390600052602060002090600502016000909190919091506000820151816000019080519060200190612102929190612b8d565b50602082015181600101908051906020019061211f929190612b8d565b50604082015181600201908051906020019061213c929190612b8d565b506060820151816003015560808201518160040160006101000a81548160ff021916908315150217905550505050808061217590613e24565b915050611e37565b50505050505050565b600a818154811061219657600080fd5b906000526020600020016000915054906101000a900473ffffffffffffffffffffffffffffffffffffffff1681565b60016020528060005260406000206000915090508060000180546121e890613dc1565b80601f016020809104026020016040519081016040528092919081815260200182805461221490613dc1565b80156122615780601f1061223657610100808354040283529160200191612261565b820191906000526020600020905b81548152906001019060200180831161224457829003601f168201915b50505050509080600101805461227690613dc1565b80601f01602080910402602001604051908101604052809291908181526020018280546122a290613dc1565b80156122ef5780601f106122c4576101008083540402835291602001916122ef565b820191906000526020600020905b8154815290600101906020018083116122d257829003601f168201915b5050505050908060020160009054906101000a900460ff16905083565b6006602052816000526040600020818154811061232857600080fd5b90600052602060002090600502016000915091505080600001805461234c90613dc1565b80601f016020809104026020016040519081016040528092919081815260200182805461237890613dc1565b80156123c55780601f1061239a576101008083540402835291602001916123c5565b820191906000526020600020905b8154815290600101906020018083116123a857829003601f168201915b5050505050908060010180546123da90613dc1565b80601f016020809104026020016040519081016040528092919081815260200182805461240690613dc1565b80156124535780601f1061242857610100808354040283529160200191612453565b820191906000526020600020905b81548152906001019060200180831161243657829003601f168201915b50505050509080600201805461246890613dc1565b80601f016020809104026020016040519081016040528092919081815260200182805461249490613dc1565b80156124e15780601f106124b6576101008083540402835291602001916124e1565b820191906000526020600020905b8154815290600101906020018083116124c457829003601f168201915b5050505050905083565b6000600160008373ffffffffffffffffffffffffffffffffffffffff1673ffffffffffffffffffffffffffffffffffffffff16815260200190815260200160002060020160009054906101000a900460ff169050919050565b6060806060600260008573ffffffffffffffffffffffffffffffffffffffff1673ffffffffffffffffffffffffffffffffffffffff16815260200190815260200160002060030160009054906101000a900460ff166125d8576040517f08c379a00000000000000000000000000000000000000000000000000000000081526004016125cf90613b04565b60405180910390fd5b6000600260008673ffffffffffffffffffffffffffffffffffffffff1673ffffffffffffffffffffffffffffffffffffffff16815260200190815260200160002060405180608001604052908160008201805461263490613dc1565b80601f016020809104026020016040519081016040528092919081815260200182805461266090613dc1565b80156126ad5780601f10612682576101008083540402835291602001916126ad565b820191906000526020600020905b81548152906001019060200180831161269057829003601f168201915b505050505081526020016001820180546126c690613dc1565b80601f01602080910402602001604051908101604052809291908181526020018280546126f290613dc1565b801561273f5780601f106127145761010080835404028352916020019161273f565b820191906000526020600020905b81548152906001019060200180831161272257829003601f168201915b5050505050815260200160028201805461275890613dc1565b80601f016020809104026020016040519081016040528092919081815260200182805461278490613dc1565b80156127d15780601f106127a6576101008083540402835291602001916127d1565b820191906000526020600020905b8154815290600101906020018083116127b457829003601f168201915b505050505081526020016003820160009054906101000a900460ff1615151515815250509050806000015181602001518260400151935093509350509193909250565b60008060003373ffffffffffffffffffffffffffffffffffffffff1673ffffffffffffffffffffffffffffffffffffffff168152602001908152602001600020600001805461286290613dc1565b9050146128a4576040517f08c379a000000000000000000000000000000000000000000000000000000000815260040161289b90613b84565b60405180910390fd5b6040518060600160405280838152602001828152602001600115158152506000803373ffffffffffffffffffffffffffffffffffffffff1673ffffffffffffffffffffffffffffffffffffffff168152602001908152602001600020600082015181600001908051906020019061291c929190612b8d565b506020820151816001019080519060200190612939929190612b8d565b5060408201518160020160006101000a81548160ff0219169083151502179055509050505050565b60038180516020810182018051848252602083016020850120818352809550505050505060009150905080600001805461299a90613dc1565b80601f01602080910402602001604051908101604052809291908181526020018280546129c690613dc1565b8015612a135780601f106129e857610100808354040283529160200191612a13565b820191906000526020600020905b8154815290600101906020018083116129f657829003601f168201915b5050505050908060010160009054906101000a900460ff16905082565b600481805160208101820180518482526020830160208501208183528095505050505050600091509050806000018054612a6990613dc1565b80601f0160208091040260200160405190810160405280929190818152602001828054612a9590613dc1565b8015612ae25780601f10612ab757610100808354040283529160200191612ae2565b820191906000526020600020905b815481529060010190602001808311612ac557829003601f168201915b505050505090806001018054612af790613dc1565b80601f0160208091040260200160405190810160405280929190818152602001828054612b2390613dc1565b8015612b705780601f10612b4557610100808354040283529160200191612b70565b820191906000526020600020905b815481529060010190602001808311612b5357829003601f168201915b5050505050908060020160009054906101000a900460ff16905083565b828054612b9990613dc1565b90600052602060002090601f016020900481019282612bbb5760008555612c02565b82601f10612bd457805160ff1916838001178555612c02565b82800160010185558215612c02579182015b82811115612c01578251825591602001919060010190612be6565b5b509050612c0f9190612d90565b5090565b60405180608001604052806060815260200160608152602001606081526020016000151581525090565b6040518060a0016040528060608152602001606081526020016060815260200160608152602001606081525090565b828054828255906000526020600020908101928215612ca8579160200282015b82811115612ca7578251825591602001919060010190612c8c565b5b509050612cb59190612d90565b5090565b82805482825590600052602060002090601f01602090048101928215612d4e5791602002820160005b83821115612d1f57835183826101000a81548160ff0219169083151502179055509260200192600101602081600001049283019260010302612ce2565b8015612d4c5782816101000a81549060ff0219169055600101602081600001049283019260010302612d1f565b505b509050612d5b9190612d90565b5090565b6040518060a00160405280606081526020016060815260200160608152602001600081526020016000151581525090565b5b80821115612da9576000816000905550600101612d91565b5090565b6000612dc0612dbb84613c04565b613bdf565b90508083825260208201905082856020860282011115612ddf57600080fd5b60005b85811015612e0f5781612df58882612f2c565b845260208401935060208301925050600181019050612de2565b5050509392505050565b6000612e2c612e2784613c30565b613bdf565b90508083825260208201905082856020860282011115612e4b57600080fd5b60005b85811015612e7b5781612e618882612f6b565b845260208401935060208301925050600181019050612e4e565b5050509392505050565b6000612e98612e9384613c5c565b613bdf565b905082815260208101848484011115612eb057600080fd5b612ebb848285613d7f565b509392505050565b600081359050612ed2816140a5565b92915050565b600082601f830112612ee957600080fd5b8135612ef9848260208601612dad565b91505092915050565b600082601f830112612f1357600080fd5b8135612f23848260208601612e19565b91505092915050565b600081359050612f3b816140bc565b92915050565b600082601f830112612f5257600080fd5b8135612f62848260208601612e85565b91505092915050565b600081359050612f7a816140d3565b92915050565b600060208284031215612f9257600080fd5b6000612fa084828501612ec3565b91505092915050565b600080600060608486031215612fbe57600080fd5b6000612fcc86828701612ec3565b935050602084013567ffffffffffffffff811115612fe957600080fd5b612ff586828701612f41565b925050604084013567ffffffffffffffff81111561301257600080fd5b61301e86828701612f41565b9150509250925092565b6000806000806080858703121561303e57600080fd5b600061304c87828801612ec3565b945050602085013567ffffffffffffffff81111561306957600080fd5b61307587828801612f41565b935050604085013567ffffffffffffffff81111561309257600080fd5b61309e87828801612f41565b925050606085013567ffffffffffffffff8111156130bb57600080fd5b6130c787828801612f41565b91505092959194509250565b600080604083850312156130e657600080fd5b60006130f485828601612ec3565b925050602061310585828601612f6b565b9150509250929050565b60006020828403121561312157600080fd5b600082013567ffffffffffffffff81111561313b57600080fd5b61314784828501612f41565b91505092915050565b6000806040838503121561316357600080fd5b600083013567ffffffffffffffff81111561317d57600080fd5b61318985828601612f41565b925050602083013567ffffffffffffffff8111156131a657600080fd5b6131b285828601612f41565b9150509250929050565b6000806000606084860312156131d157600080fd5b600084013567ffffffffffffffff8111156131eb57600080fd5b6131f786828701612f41565b935050602084013567ffffffffffffffff81111561321457600080fd5b61322086828701612f41565b925050604084013567ffffffffffffffff81111561323d57600080fd5b61324986828701612f41565b9150509250925092565b600080600080600060a0868803121561326b57600080fd5b600086013567ffffffffffffffff81111561328557600080fd5b61329188828901612f41565b955050602086013567ffffffffffffffff8111156132ae57600080fd5b6132ba88828901612f41565b945050604086013567ffffffffffffffff8111156132d757600080fd5b6132e388828901612f41565b935050606086013567ffffffffffffffff81111561330057600080fd5b61330c88828901612f02565b925050608086013567ffffffffffffffff81111561332957600080fd5b61333588828901612ed8565b9150509295509295909350565b6000806040838503121561335557600080fd5b600083013567ffffffffffffffff81111561336f57600080fd5b61337b85828601612f41565b925050602061338c85828601612f6b565b9150509250929050565b6000602082840312156133a857600080fd5b60006133b684828501612f6b565b91505092915050565b600080604083850312156133d257600080fd5b60006133e085828601612f6b565b92505060206133f185828601612f6b565b9150509250929050565b6000613407838361373b565b905092915050565b600061341b83836137bf565b905092915050565b61342c81613d37565b82525050565b600061343d82613cad565b6134478185613ce8565b93508360208202850161345985613c8d565b8060005b85811015613495578484038952815161347685826133fb565b945061348183613cce565b925060208a0199505060018101905061345d565b50829750879550505050505092915050565b60006134b282613cb8565b6134bc8185613cf9565b9350836020820285016134ce85613c9d565b8060005b8581101561350a57848403895281516134eb858261340f565b94506134f683613cdb565b925060208a019950506001810190506134d2565b50829750879550505050505092915050565b61352581613d49565b82525050565b61353481613d49565b82525050565b600061354582613cc3565b61354f8185613d0a565b935061355f818560208601613d8e565b61356881613efa565b840191505092915050565b600061357e82613cc3565b6135888185613d1b565b9350613598818560208601613d8e565b6135a181613efa565b840191505092915050565b60006135b782613cc3565b6135c18185613d2c565b93506135d1818560208601613d8e565b80840191505092915050565b60006135ea601683613d1b565b91506135f582613f0b565b602082019050919050565b600061360d601483613d1b565b915061361882613f34565b602082019050919050565b6000613630601183613d1b565b915061363b82613f5d565b602082019050919050565b6000613653600c83613d1b565b915061365e82613f86565b602082019050919050565b6000613676601183613d1b565b915061368182613faf565b602082019050919050565b6000613699601983613d1b565b91506136a482613fd8565b602082019050919050565b60006136bc601a83613d1b565b91506136c782614001565b602082019050919050565b60006136df601983613d1b565b91506136ea8261402a565b602082019050919050565b6000613702601883613d1b565b915061370d82614053565b602082019050919050565b6000613725601a83613d1b565b91506137308261407c565b602082019050919050565b600060a0830160008301518482036000860152613758828261353a565b91505060208301518482036020860152613772828261353a565b9150506040830151848203604086015261378c828261353a565b91505060608301516137a16060860182613830565b5060808301516137b4608086018261351c565b508091505092915050565b600060808301600083015184820360008601526137dc828261353a565b915050602083015184820360208601526137f6828261353a565b91505060408301518482036040860152613810828261353a565b9150506060830151613825606086018261351c565b508091505092915050565b61383981613d75565b82525050565b61384881613d75565b82525050565b600061385a82846135ac565b915081905092915050565b600060208201905061387a6000830184613423565b92915050565b6000602082019050818103600083015261389a8184613432565b905092915050565b600060208201905081810360008301526138bc81846134a7565b905092915050565b60006020820190506138d9600083018461352b565b92915050565b600060208201905081810360008301526138f98184613573565b905092915050565b6000604082019050818103600083015261391b8185613573565b905061392a602083018461352b565b9392505050565b6000606082019050818103600083015261394b8186613573565b9050818103602083015261395f8185613573565b905061396e604083018461352b565b949350505050565b600060608201905081810360008301526139908186613573565b905081810360208301526139a48185613573565b905081810360408301526139b88184613573565b9050949350505050565b600060808201905081810360008301526139dc8187613573565b905081810360208301526139f08186613573565b90508181036040830152613a048185613573565b9050613a13606083018461352b565b95945050505050565b600060a0820190508181036000830152613a368188613573565b90508181036020830152613a4a8187613573565b90508181036040830152613a5e8186613573565b9050613a6d606083018561383f565b613a7a608083018461352b565b9695505050505050565b60006020820190508181036000830152613a9d816135dd565b9050919050565b60006020820190508181036000830152613abd81613600565b9050919050565b60006020820190508181036000830152613add81613623565b9050919050565b60006020820190508181036000830152613afd81613646565b9050919050565b60006020820190508181036000830152613b1d81613669565b9050919050565b60006020820190508181036000830152613b3d8161368c565b9050919050565b60006020820190508181036000830152613b5d816136af565b9050919050565b60006020820190508181036000830152613b7d816136d2565b9050919050565b60006020820190508181036000830152613b9d816136f5565b9050919050565b60006020820190508181036000830152613bbd81613718565b9050919050565b6000602082019050613bd9600083018461383f565b92915050565b6000613be9613bfa565b9050613bf58282613df3565b919050565b6000604051905090565b600067ffffffffffffffff821115613c1f57613c1e613ecb565b5b602082029050602081019050919050565b600067ffffffffffffffff821115613c4b57613c4a613ecb565b5b602082029050602081019050919050565b600067ffffffffffffffff821115613c7757613c76613ecb565b5b613c8082613efa565b9050602081019050919050565b6000819050602082019050919050565b6000819050602082019050919050565b600081519050919050565b600081519050919050565b600081519050919050565b6000602082019050919050565b6000602082019050919050565b600082825260208201905092915050565b600082825260208201905092915050565b600082825260208201905092915050565b600082825260208201905092915050565b600081905092915050565b6000613d4282613d55565b9050919050565b60008115159050919050565b600073ffffffffffffffffffffffffffffffffffffffff82169050919050565b6000819050919050565b82818337600083830152505050565b60005b83811015613dac578082015181840152602081019050613d91565b83811115613dbb576000848401525b50505050565b60006002820490506001821680613dd957607f821691505b60208210811415613ded57613dec613e9c565b5b50919050565b613dfc82613efa565b810181811067ffffffffffffffff82111715613e1b57613e1a613ecb565b5b80604052505050565b6000613e2f82613d75565b91507fffffffffffffffffffffffffffffffffffffffffffffffffffffffffffffffff821415613e6257613e61613e6d565b5b600182019050919050565b7f4e487b7100000000000000000000000000000000000000000000000000000000600052601160045260246000fd5b7f4e487b7100000000000000000000000000000000000000000000000000000000600052602260045260246000fd5b7f4e487b7100000000000000000000000000000000000000000000000000000000600052604160045260246000fd5b6000601f19601f8301169050919050565b7f5375626a65637420616c72656164792061646465642e00000000000000000000600082015250565b7f4e6f74206120666163756c7479206d656d626572000000000000000000000000600082015250565b7f4d69736d61746368656420617272617973000000000000000000000000000000600082015250565b7f4e6f7420616e2061646d696e0000000000000000000000000000000000000000600082015250565b7f53747564656e74206e6f7420666f756e64000000000000000000000000000000600082015250565b7f4465706172746d656e7420646f6573206e6f7420657869737400000000000000600082015250565b7f53747564656e7420616c72656164792072656769737465726564000000000000600082015250565b7f4465706172746d656e7420616c72656164792065786973747300000000000000600082015250565b7f41646d696e20616c726561647920726567697374657265640000000000000000600082015250565b7f466163756c747920616c72656164792072656769737465726564000000000000600082015250565b6140ae81613d37565b81146140b957600080fd5b50565b6140c581613d49565b81146140d057600080fd5b50565b6140dc81613d75565b81146140e757600080fd5b5056fea26469706673582212203b48d5081360da66f90dd2b4e099c7ecffb2aa38c2016a2219f0d6c7b47575a264736f6c63430008020033",
  "immutableReferences": {},
  "source": "// SPDX-License-Identifier: MIT\r\npragma solidity ^0.8.0;\r\n\r\ncontract AttendanceSystem {\r\n    struct Admin {\r\n        string name;\r\n        string college;\r\n        bool exists;\r\n    }\r\n    \r\n    struct Faculty {\r\n        string name;\r\n        string department;\r\n        bool exists;\r\n    }\r\n    \r\n    struct Student {\r\n        string studentId;\r\n        string name;\r\n        string department;\r\n        bool exists;\r\n    }\r\n    \r\n    struct Department {\r\n        string name;\r\n        bool exists;\r\n    }\r\n\r\n    struct Subject {\r\n        string subCode;\r\n        string subName;\r\n        bool exists;\r\n    }\r\n    \r\n    struct AttendanceRecord {\r\n        string subjectCode;\r\n        string subjectName;\r\n        string lectureTime;\r\n        uint[] studentIds;\r\n        bool[] attendanceStatuses; // Attendance status of each student (true = present, false = absent)\r\n    }\r\n\r\n    struct PerStudentAttendance {\r\n        string studentSubjectCode;\r\n        string studentSubjectName;\r\n        string studentLectureTime;\r\n        uint studentId;\r\n        bool studentAttendanceStatus;\r\n    }\r\n    \r\n    mapping(address => Admin) public admins;\r\n    mapping(address => Faculty) public faculties;\r\n    mapping(address => Student) public students;\r\n    mapping(string => Department) public departments;\r\n    mapping(string => Subject) public subjects;\r\n    mapping(string => address[]) public departmentStudents;\r\n    mapping(uint => AttendanceRecord[]) public studentAttendance;\r\n    mapping(address => PerStudentAttendance[]) public perStudentAttendances;\r\n\r\n    string[] public departmentKeys;\r\n    address[] public facultyAddresses;\r\n    address[] public studentAddresses;\r\n    \r\n    address public owner;\r\n    \r\n    constructor() {\r\n        owner = msg.sender;\r\n        admins[msg.sender] = Admin(\"Super Admin\", \"\", true);\r\n    }\r\n    \r\n    modifier onlyAdmin() {\r\n        require(admins[msg.sender].exists, \"Not an admin\");\r\n        _;\r\n    }\r\n    \r\n    function isAdmin(address account) public view returns (bool) {\r\n        return admins[account].exists;\r\n    }\r\n    \r\n    function isFaculty(address account) public view returns (bool) {\r\n        return faculties[account].exists;\r\n    }\r\n    \r\n    function isStudent(address account) public view returns (bool) {\r\n        return students[account].exists;\r\n    }\r\n\r\n    function registerAdmin(string memory _name, string memory _college) public {\r\n        require(bytes(admins[msg.sender].name).length == 0, \"Admin already registered\");\r\n        admins[msg.sender] = Admin(_name, _college, true);\r\n    }\r\n\r\n    function addDepartment(string memory deptCode, string memory deptName) public onlyAdmin {\r\n        require(!departments[deptCode].exists, \"Department already exists\");\r\n        departments[deptCode] = Department(deptName, true);\r\n        departmentKeys.push(deptCode);\r\n    }\r\n\r\n    function addSubject(string memory deptCode, string memory subCode, string memory subName) public onlyAdmin {\r\n        require(!subjects[deptCode].exists, \"Subject already added.\");\r\n        subjects[deptCode] = Subject(subCode, subName, true);\r\n    }\r\n\r\n    function registerFaculty(address facultyAddress, string memory facultyName, string memory facultyDept) public onlyAdmin {\r\n        require(!faculties[facultyAddress].exists, \"Faculty already registered\");\r\n        require(departments[facultyDept].exists, \"Department does not exist\");\r\n        faculties[facultyAddress] = Faculty(facultyName, facultyDept, true);\r\n        facultyAddresses.push(facultyAddress);\r\n    }\r\n\r\n    function registerStudent(address studentAddress, string memory studentId, string memory studentName, string memory studentDept) public onlyAdmin {\r\n        require(!students[studentAddress].exists, \"Student already registered\");\r\n        require(departments[studentDept].exists, \"Department does not exist\");\r\n        students[studentAddress] = Student(studentId, studentName, studentDept, true);\r\n        departmentStudents[studentDept].push(studentAddress);\r\n        studentAddresses.push(studentAddress);\r\n    }\r\n\r\n    function getDepartmentCount() public view returns (uint) {\r\n        return departmentKeys.length;\r\n    }\r\n\r\n    function getFacultyCount() public view returns (uint) {\r\n        return facultyAddresses.length;\r\n    }\r\n\r\n    function getStudentCount() public view returns (uint) {\r\n        return studentAddresses.length;\r\n    }\r\n    \r\n    function getStudentsByDepartment(string memory departmentCode) public view returns (Student[] memory) {\r\n        address[] memory deptStudentAddresses = departmentStudents[departmentCode];\r\n        Student[] memory studentList = new Student[](studentAddresses.length);\r\n        for (uint i = 0; i < deptStudentAddresses.length; i++) {\r\n            studentList[i] = students[deptStudentAddresses[i]];\r\n        }\r\n        return studentList;\r\n    }\r\n    \r\n    function markAttendance(\r\n        string memory subjectCode, \r\n        string memory subjectName, \r\n        string memory lectureTime,\r\n        uint[] memory studentIds,\r\n        bool[] memory statuses\r\n    ) public  {     // view returns (AttendanceRecord memory)\r\n        require(faculties[msg.sender].exists, \"Not a faculty member\");\r\n        require(studentIds.length == statuses.length, \"Mismatched arrays\");\r\n        \r\n        // Create a new attendance record\r\n        AttendanceRecord memory newRecord;\r\n        newRecord.subjectCode = subjectCode;\r\n        newRecord.subjectName = subjectName;\r\n        newRecord.lectureTime = lectureTime;\r\n        newRecord.studentIds = studentIds;\r\n        newRecord.attendanceStatuses = statuses;\r\n\r\n        for (uint i = 0; i < studentIds.length; i++) {\r\n            studentAttendance[studentIds[i]].push(newRecord);\r\n\r\n            PerStudentAttendance memory newStudentAttendance;\r\n            newStudentAttendance.studentSubjectCode = newRecord.subjectCode;\r\n            newStudentAttendance.studentSubjectName = newRecord.subjectName;\r\n            newStudentAttendance.studentLectureTime = newRecord.lectureTime;\r\n            newStudentAttendance.studentId = studentIds[i];\r\n            newStudentAttendance.studentAttendanceStatus = statuses[i];\r\n            perStudentAttendances[studentAddresses[i]].push(newStudentAttendance);\r\n        }\r\n    }\r\n\r\n    function getStudentDetails(address studentAddress) public view returns (string memory, string memory, string memory) {\r\n        require(students[studentAddress].exists, \"Student not found\");\r\n        Student memory student = students[studentAddress];\r\n        return (student.studentId, student.name, student.department);\r\n    }\r\n    \r\n    function getStudentAttendance(address studentAddress) public view returns (PerStudentAttendance[] memory) {\r\n        return perStudentAttendances[studentAddress];\r\n    }\r\n}",
  "sourcePath": "C:\\blockchain_lab\\test2\\attendance\\src\\contracts\\Attendance.sol",
  "compiler": {
    "name": "solc",
    "version": "0.8.2+commit.661d1103.Emscripten.clang"
  },
  "schemaVersion": "3.4.16",
  "updatedAt": "2025-03-17T13:00:19.223Z",
  "networkType": "ethereum",
  "devdoc": {
    "kind": "dev",
    "methods": {},
    "version": 1
  },
  "userdoc": {
    "kind": "user",
    "methods": {},
    "version": 1
  }
}