{
  "contractName": "AttendanceSystem",
  "abi": [
    {
      "inputs": [],
      "stateMutability": "nonpayable",
      "type": "constructor"
    },
    {
      "inputs": [
        {
          "internalType": "address",
          "name": "",
          "type": "address"
        }
      ],
      "name": "admins",
      "outputs": [
        {
          "internalType": "string",
          "name": "name",
          "type": "string"
        },
        {
          "internalType": "string",
          "name": "college",
          "type": "string"
        },
        {
          "internalType": "bool",
          "name": "exists",
          "type": "bool"
        }
      ],
      "stateMutability": "view",
      "type": "function",
      "constant": true
    },
    {
      "inputs": [
        {
          "internalType": "uint256",
          "name": "",
          "type": "uint256"
        }
      ],
      "name": "departmentKeys",
      "outputs": [
        {
          "internalType": "string",
          "name": "",
          "type": "string"
        }
      ],
      "stateMutability": "view",
      "type": "function",
      "constant": true
    },
    {
      "inputs": [
        {
          "internalType": "string",
          "name": "",
          "type": "string"
        },
        {
          "internalType": "uint256",
          "name": "",
          "type": "uint256"
        }
      ],
      "name": "departmentStudents",
      "outputs": [
        {
          "internalType": "address",
          "name": "",
          "type": "address"
        }
      ],
      "stateMutability": "view",
      "type": "function",
      "constant": true
    },
    {
      "inputs": [
        {
          "internalType": "string",
          "name": "",
          "type": "string"
        }
      ],
      "name": "departments",
      "outputs": [
        {
          "internalType": "string",
          "name": "name",
          "type": "string"
        },
        {
          "internalType": "bool",
          "name": "exists",
          "type": "bool"
        }
      ],
      "stateMutability": "view",
      "type": "function",
      "constant": true
    },
    {
      "inputs": [
        {
          "internalType": "address",
          "name": "",
          "type": "address"
        }
      ],
      "name": "faculties",
      "outputs": [
        {
          "internalType": "string",
          "name": "name",
          "type": "string"
        },
        {
          "internalType": "string",
          "name": "department",
          "type": "string"
        },
        {
          "internalType": "bool",
          "name": "exists",
          "type": "bool"
        }
      ],
      "stateMutability": "view",
      "type": "function",
      "constant": true
    },
    {
      "inputs": [
        {
          "internalType": "uint256",
          "name": "",
          "type": "uint256"
        }
      ],
      "name": "facultyAddresses",
      "outputs": [
        {
          "internalType": "address",
          "name": "",
          "type": "address"
        }
      ],
      "stateMutability": "view",
      "type": "function",
      "constant": true
    },
    {
      "inputs": [],
      "name": "owner",
      "outputs": [
        {
          "internalType": "address",
          "name": "",
          "type": "address"
        }
      ],
      "stateMutability": "view",
      "type": "function",
      "constant": true
    },
    {
      "inputs": [
        {
          "internalType": "string",
          "name": "",
          "type": "string"
        },
        {
          "internalType": "address",
          "name": "",
          "type": "address"
        },
        {
          "internalType": "uint256",
          "name": "",
          "type": "uint256"
        }
      ],
      "name": "perStudentAttendances",
      "outputs": [
        {
          "internalType": "string",
          "name": "studentSubjectCode",
          "type": "string"
        },
        {
          "internalType": "string",
          "name": "studentSubjectName",
          "type": "string"
        },
        {
          "internalType": "string",
          "name": "studentLectureTime",
          "type": "string"
        },
        {
          "internalType": "uint256",
          "name": "studentId",
          "type": "uint256"
        },
        {
          "internalType": "bool",
          "name": "studentAttendanceStatus",
          "type": "bool"
        }
      ],
      "stateMutability": "view",
      "type": "function",
      "constant": true
    },
    {
      "inputs": [
        {
          "internalType": "uint256",
          "name": "",
          "type": "uint256"
        }
      ],
      "name": "studentAddresses",
      "outputs": [
        {
          "internalType": "address",
          "name": "",
          "type": "address"
        }
      ],
      "stateMutability": "view",
      "type": "function",
      "constant": true
    },
    {
      "inputs": [
        {
          "internalType": "string",
          "name": "",
          "type": "string"
        },
        {
          "internalType": "uint256",
          "name": "",
          "type": "uint256"
        }
      ],
      "name": "studentAttendance",
      "outputs": [
        {
          "internalType": "string",
          "name": "subjectCode",
          "type": "string"
        },
        {
          "internalType": "string",
          "name": "subjectName",
          "type": "string"
        },
        {
          "internalType": "string",
          "name": "lectureTime",
          "type": "string"
        }
      ],
      "stateMutability": "view",
      "type": "function",
      "constant": true
    },
    {
      "inputs": [
        {
          "internalType": "address",
          "name": "",
          "type": "address"
        }
      ],
      "name": "students",
      "outputs": [
        {
          "internalType": "address",
          "name": "studentAddress",
          "type": "address"
        },
        {
          "internalType": "uint256",
          "name": "studentId",
          "type": "uint256"
        },
        {
          "internalType": "string",
          "name": "name",
          "type": "string"
        },
        {
          "internalType": "string",
          "name": "department",
          "type": "string"
        },
        {
          "internalType": "bool",
          "name": "exists",
          "type": "bool"
        }
      ],
      "stateMutability": "view",
      "type": "function",
      "constant": true
    },
    {
      "inputs": [
        {
          "internalType": "string",
          "name": "",
          "type": "string"
        },
        {
          "internalType": "string",
          "name": "",
          "type": "string"
        }
      ],
      "name": "subjects",
      "outputs": [
        {
          "internalType": "string",
          "name": "subCode",
          "type": "string"
        },
        {
          "internalType": "string",
          "name": "subName",
          "type": "string"
        },
        {
          "internalType": "bool",
          "name": "exists",
          "type": "bool"
        }
      ],
      "stateMutability": "view",
      "type": "function",
      "constant": true
    },
    {
      "inputs": [
        {
          "internalType": "address",
          "name": "account",
          "type": "address"
        }
      ],
      "name": "isAdmin",
      "outputs": [
        {
          "internalType": "bool",
          "name": "",
          "type": "bool"
        }
      ],
      "stateMutability": "view",
      "type": "function",
      "constant": true
    },
    {
      "inputs": [
        {
          "internalType": "address",
          "name": "account",
          "type": "address"
        }
      ],
      "name": "isFaculty",
      "outputs": [
        {
          "internalType": "bool",
          "name": "",
          "type": "bool"
        }
      ],
      "stateMutability": "view",
      "type": "function",
      "constant": true
    },
    {
      "inputs": [
        {
          "internalType": "address",
          "name": "account",
          "type": "address"
        }
      ],
      "name": "isStudent",
      "outputs": [
        {
          "internalType": "bool",
          "name": "",
          "type": "bool"
        }
      ],
      "stateMutability": "view",
      "type": "function",
      "constant": true
    },
    {
      "inputs": [
        {
          "internalType": "string",
          "name": "_name",
          "type": "string"
        },
        {
          "internalType": "string",
          "name": "_college",
          "type": "string"
        }
      ],
      "name": "registerAdmin",
      "outputs": [],
      "stateMutability": "nonpayable",
      "type": "function"
    },
    {
      "inputs": [
        {
          "internalType": "string",
          "name": "deptCode",
          "type": "string"
        },
        {
          "internalType": "string",
          "name": "deptName",
          "type": "string"
        }
      ],
      "name": "addDepartment",
      "outputs": [],
      "stateMutability": "nonpayable",
      "type": "function"
    },
    {
      "inputs": [
        {
          "internalType": "string",
          "name": "deptCode",
          "type": "string"
        },
        {
          "internalType": "string",
          "name": "subCode",
          "type": "string"
        },
        {
          "internalType": "string",
          "name": "subName",
          "type": "string"
        }
      ],
      "name": "addSubject",
      "outputs": [],
      "stateMutability": "nonpayable",
      "type": "function"
    },
    {
      "inputs": [
        {
          "internalType": "address",
          "name": "facultyAddress",
          "type": "address"
        },
        {
          "internalType": "string",
          "name": "facultyName",
          "type": "string"
        },
        {
          "internalType": "string",
          "name": "facultyDept",
          "type": "string"
        }
      ],
      "name": "registerFaculty",
      "outputs": [],
      "stateMutability": "nonpayable",
      "type": "function"
    },
    {
      "inputs": [
        {
          "internalType": "address",
          "name": "studentAddress",
          "type": "address"
        },
        {
          "internalType": "uint256",
          "name": "studentId",
          "type": "uint256"
        },
        {
          "internalType": "string",
          "name": "studentName",
          "type": "string"
        },
        {
          "internalType": "string",
          "name": "studentDept",
          "type": "string"
        }
      ],
      "name": "registerStudent",
      "outputs": [],
      "stateMutability": "nonpayable",
      "type": "function"
    },
    {
      "inputs": [],
      "name": "getDepartmentCount",
      "outputs": [
        {
          "internalType": "uint256",
          "name": "",
          "type": "uint256"
        }
      ],
      "stateMutability": "view",
      "type": "function",
      "constant": true
    },
    {
      "inputs": [],
      "name": "getFacultyCount",
      "outputs": [
        {
          "internalType": "uint256",
          "name": "",
          "type": "uint256"
        }
      ],
      "stateMutability": "view",
      "type": "function",
      "constant": true
    },
    {
      "inputs": [],
      "name": "getStudentCount",
      "outputs": [
        {
          "internalType": "uint256",
          "name": "",
          "type": "uint256"
        }
      ],
      "stateMutability": "view",
      "type": "function",
      "constant": true
    },
    {
      "inputs": [
        {
          "internalType": "string",
          "name": "departmentCode",
          "type": "string"
        }
      ],
      "name": "getStudentsByDepartment",
      "outputs": [
        {
          "components": [
            {
              "internalType": "address",
              "name": "studentAddress",
              "type": "address"
            },
            {
              "internalType": "uint256",
              "name": "studentId",
              "type": "uint256"
            },
            {
              "internalType": "string",
              "name": "name",
              "type": "string"
            },
            {
              "internalType": "string",
              "name": "department",
              "type": "string"
            },
            {
              "internalType": "bool",
              "name": "exists",
              "type": "bool"
            }
          ],
          "internalType": "struct AttendanceSystem.Student[]",
          "name": "",
          "type": "tuple[]"
        }
      ],
      "stateMutability": "view",
      "type": "function",
      "constant": true
    },
    {
      "inputs": [
        {
          "internalType": "string",
          "name": "deptCode",
          "type": "string"
        },
        {
          "internalType": "string",
          "name": "subjectCode",
          "type": "string"
        },
        {
          "internalType": "string",
          "name": "subjectName",
          "type": "string"
        },
        {
          "internalType": "string",
          "name": "lectureTime",
          "type": "string"
        },
        {
          "internalType": "address[]",
          "name": "studentAddrs",
          "type": "address[]"
        },
        {
          "internalType": "uint256[]",
          "name": "studentIds",
          "type": "uint256[]"
        },
        {
          "internalType": "bool[]",
          "name": "statuses",
          "type": "bool[]"
        }
      ],
      "name": "markAttendance",
      "outputs": [],
      "stateMutability": "nonpayable",
      "type": "function"
    },
    {
      "inputs": [
        {
          "internalType": "address",
          "name": "studentAddress",
          "type": "address"
        }
      ],
      "name": "getStudentDetails",
      "outputs": [
        {
          "internalType": "uint256",
          "name": "",
          "type": "uint256"
        },
        {
          "internalType": "string",
          "name": "",
          "type": "string"
        },
        {
          "internalType": "string",
          "name": "",
          "type": "string"
        }
      ],
      "stateMutability": "view",
      "type": "function",
      "constant": true
    },
    {
      "inputs": [
        {
          "internalType": "address",
          "name": "studentAddress",
          "type": "address"
        },
        {
          "internalType": "string",
          "name": "deptCode",
          "type": "string"
        }
      ],
      "name": "getStudentAttendance",
      "outputs": [
        {
          "components": [
            {
              "internalType": "string",
              "name": "studentSubjectCode",
              "type": "string"
            },
            {
              "internalType": "string",
              "name": "studentSubjectName",
              "type": "string"
            },
            {
              "internalType": "string",
              "name": "studentLectureTime",
              "type": "string"
            },
            {
              "internalType": "uint256",
              "name": "studentId",
              "type": "uint256"
            },
            {
              "internalType": "bool",
              "name": "studentAttendanceStatus",
              "type": "bool"
            }
          ],
          "internalType": "struct AttendanceSystem.PerStudentAttendance[]",
          "name": "",
          "type": "tuple[]"
        }
      ],
      "stateMutability": "view",
      "type": "function",
      "constant": true
    }
  ],
  "bytecode": "0x60806040523480156200001157600080fd5b5033600b60006101000a81548173ffffffffffffffffffffffffffffffffffffffff021916908373ffffffffffffffffffffffffffffffffffffffff16021790555060405180606001604052806040518060400160405280600b81526020017f53757065722041646d696e0000000000000000000000000000000000000000008152508152602001604051806020016040528060008152508152602001600115158152506000803373ffffffffffffffffffffffffffffffffffffffff1673ffffffffffffffffffffffffffffffffffffffff1681526020019081526020016000206000820151816000019080519060200190620001119291906200015a565b506020820151816001019080519060200190620001309291906200015a565b5060408201518160020160006101000a81548160ff0219169083151502179055509050506200026f565b82805462000168906200020a565b90600052602060002090601f0160209004810192826200018c5760008555620001d8565b82601f10620001a757805160ff1916838001178555620001d8565b82800160010185558215620001d8579182015b82811115620001d7578251825591602001919060010190620001ba565b5b509050620001e79190620001eb565b5090565b5b8082111562000206576000816000905550600101620001ec565b5090565b600060028204905060018216806200022357607f821691505b602082108114156200023a576200023962000240565b5b50919050565b7f4e487b7100000000000000000000000000000000000000000000000000000000600052602260045260246000fd5b6143bf806200027f6000396000f3fe608060405234801561001057600080fd5b50600436106101a95760003560e01c80638da5cb5b116100f9578063b5fdf25211610097578063d0b371bd11610071578063d0b371bd14610562578063ebda784b14610594578063f8f98b79146105c4578063fa3e4936146105e0576101a9565b8063b5fdf252146104cc578063c2a78702146104fe578063cb84061b1461052e576101a9565b8063a6c807a9116100d3578063a6c807a914610430578063a7d0a99414610464578063ab0781bd14610480578063b5ab682d1461049c576101a9565b80638da5cb5b146103c45780638f3c5b57146103e257806394610cd414610414576101a9565b8063411e00aa11610166578063551c59c611610140578063551c59c61461032a578063790899871461035a57806382de73461461037857806382f7d39214610394576101a9565b8063411e00aa146102be57806341e0c407146102da578063429b62e5146102f8576101a9565b806314fbedd9146101ae5780631781498b146101de578063213c1485146101fc57806324d7806c1461022e57806326360f4d1461025e5780632f7bb5a51461028e575b600080fd5b6101c860048036038101906101c3919061351e565b610611565b6040516101d59190613a43565b60405180910390f35b6101e6610675565b6040516101f39190613dc9565b60405180910390f35b6102166004803603810190610211919061351e565b610682565b60405161022593929190613bb5565b60405180910390f35b6102486004803603810190610243919061309e565b610877565b6040516102559190613b03565b60405180910390f35b61027860048036038101906102739190613572565b6108cf565b6040516102859190613a43565b60405180910390f35b6102a860048036038101906102a39190613572565b61090e565b6040516102b59190613b1e565b60405180910390f35b6102d860048036038101906102d391906132d5565b6109ba565b005b6102e2610b6d565b6040516102ef9190613dc9565b60405180910390f35b610312600480360381019061030d919061309e565b610b7a565b60405161032193929190613b70565b60405180910390f35b610344600480360381019061033f919061322d565b610cc1565b6040516103519190613ae1565b60405180910390f35b610362611080565b60405161036f9190613dc9565b60405180910390f35b610392600480360381019061038d919061319a565b61108d565b005b6103ae60048036038101906103a9919061309e565b61142e565b6040516103bb9190613b03565b60405180910390f35b6103cc611487565b6040516103d99190613a43565b60405180910390f35b6103fc60048036038101906103f791906132d5565b6114ad565b60405161040b93929190613b70565b60405180910390f35b61042e60048036038101906104299190613341565b61162d565b005b61044a6004803603810190610445919061309e565b61186e565b60405161045b959493929190613a5e565b60405180910390f35b61047e600480360381019061047991906133d8565b6119e1565b005b61049a6004803603810190610495919061311b565b611e00565b005b6104b660048036038101906104b19190613572565b6120ae565b6040516104c39190613a43565b60405180910390f35b6104e660048036038101906104e1919061309e565b6120ed565b6040516104f593929190613b70565b60405180910390f35b6105186004803603810190610513919061309e565b612234565b6040516105259190613b03565b60405180910390f35b6105486004803603810190610543919061326e565b61228d565b604051610559959493929190613c01565b60405180910390f35b61057c6004803603810190610577919061309e565b6124a8565b60405161058b93929190613de4565b60405180910390f35b6105ae60048036038101906105a991906130c7565b612746565b6040516105bb9190613abf565b60405180910390f35b6105de60048036038101906105d991906132d5565b6129dc565b005b6105fa60048036038101906105f5919061322d565b612b29565b604051610608929190613b40565b60405180910390f35b600582805160208101820180518482526020830160208501208183528095505050505050818154811061064357600080fd5b906000526020600020016000915091509054906101000a900473ffffffffffffffffffffffffffffffffffffffff1681565b6000600980549050905090565b60068280516020810182018051848252602083016020850120818352809550505050505081815481106106b457600080fd5b9060005260206000209060050201600091509150508060000180546106d890614037565b80601f016020809104026020016040519081016040528092919081815260200182805461070490614037565b80156107515780601f1061072657610100808354040283529160200191610751565b820191906000526020600020905b81548152906001019060200180831161073457829003601f168201915b50505050509080600101805461076690614037565b80601f016020809104026020016040519081016040528092919081815260200182805461079290614037565b80156107df5780601f106107b4576101008083540402835291602001916107df565b820191906000526020600020905b8154815290600101906020018083116107c257829003601f168201915b5050505050908060020180546107f490614037565b80601f016020809104026020016040519081016040528092919081815260200182805461082090614037565b801561086d5780601f106108425761010080835404028352916020019161086d565b820191906000526020600020905b81548152906001019060200180831161085057829003601f168201915b5050505050905083565b60008060008373ffffffffffffffffffffffffffffffffffffffff1673ffffffffffffffffffffffffffffffffffffffff16815260200190815260200160002060020160009054906101000a900460ff169050919050565b600981815481106108df57600080fd5b906000526020600020016000915054906101000a900473ffffffffffffffffffffffffffffffffffffffff1681565b6008818154811061091e57600080fd5b90600052602060002001600091509050805461093990614037565b80601f016020809104026020016040519081016040528092919081815260200182805461096590614037565b80156109b25780601f10610987576101008083540402835291602001916109b2565b820191906000526020600020905b81548152906001019060200180831161099557829003601f168201915b505050505081565b6000803373ffffffffffffffffffffffffffffffffffffffff1673ffffffffffffffffffffffffffffffffffffffff16815260200190815260200160002060020160009054906101000a900460ff16610a48576040517f08c379a0000000000000000000000000000000000000000000000000000000008152600401610a3f90613cc9565b60405180910390fd5b600382604051610a589190613a2c565b908152602001604051809103902060010160009054906101000a900460ff1615610ab7576040517f08c379a0000000000000000000000000000000000000000000000000000000008152600401610aae90613d49565b60405180910390fd5b604051806040016040528082815260200160011515815250600383604051610adf9190613a2c565b90815260200160405180910390206000820151816000019080519060200190610b09929190612bf8565b5060208201518160010160006101000a81548160ff021916908315150217905550905050600882908060018154018082558091505060019003906000526020600020016000909190919091509080519060200190610b68929190612bf8565b505050565b6000600a80549050905090565b6000602052806000526040600020600091509050806000018054610b9d90614037565b80601f0160208091040260200160405190810160405280929190818152602001828054610bc990614037565b8015610c165780601f10610beb57610100808354040283529160200191610c16565b820191906000526020600020905b815481529060010190602001808311610bf957829003601f168201915b505050505090806001018054610c2b90614037565b80601f0160208091040260200160405190810160405280929190818152602001828054610c5790614037565b8015610ca45780601f10610c7957610100808354040283529160200191610ca4565b820191906000526020600020905b815481529060010190602001808311610c8757829003601f168201915b5050505050908060020160009054906101000a900460ff16905083565b60606000600583604051610cd59190613a2c565b9081526020016040518091039020805480602002602001604051908101604052809291908181526020018280548015610d6357602002820191906000526020600020905b8160009054906101000a900473ffffffffffffffffffffffffffffffffffffffff1673ffffffffffffffffffffffffffffffffffffffff1681526020019060010190808311610d19575b505050505090506000815167ffffffffffffffff811115610dad577f4e487b7100000000000000000000000000000000000000000000000000000000600052604160045260246000fd5b604051908082528060200260200182016040528015610de657816020015b610dd3612c7e565b815260200190600190039081610dcb5790505b50905060005b82518110156110755760026000848381518110610e32577f4e487b7100000000000000000000000000000000000000000000000000000000600052603260045260246000fd5b602002602001015173ffffffffffffffffffffffffffffffffffffffff1673ffffffffffffffffffffffffffffffffffffffff1681526020019081526020016000206040518060a00160405290816000820160009054906101000a900473ffffffffffffffffffffffffffffffffffffffff1673ffffffffffffffffffffffffffffffffffffffff1673ffffffffffffffffffffffffffffffffffffffff16815260200160018201548152602001600282018054610eef90614037565b80601f0160208091040260200160405190810160405280929190818152602001828054610f1b90614037565b8015610f685780601f10610f3d57610100808354040283529160200191610f68565b820191906000526020600020905b815481529060010190602001808311610f4b57829003601f168201915b50505050508152602001600382018054610f8190614037565b80601f0160208091040260200160405190810160405280929190818152602001828054610fad90614037565b8015610ffa5780601f10610fcf57610100808354040283529160200191610ffa565b820191906000526020600020905b815481529060010190602001808311610fdd57829003601f168201915b505050505081526020016004820160009054906101000a900460ff161515151581525050828281518110611057577f4e487b7100000000000000000000000000000000000000000000000000000000600052603260045260246000fd5b6020026020010181905250808061106d9061409a565b915050610dec565b508092505050919050565b6000600880549050905090565b6000803373ffffffffffffffffffffffffffffffffffffffff1673ffffffffffffffffffffffffffffffffffffffff16815260200190815260200160002060020160009054906101000a900460ff1661111b576040517f08c379a000000000000000000000000000000000000000000000000000000000815260040161111290613cc9565b60405180910390fd5b600260008573ffffffffffffffffffffffffffffffffffffffff1673ffffffffffffffffffffffffffffffffffffffff16815260200190815260200160002060040160009054906101000a900460ff16156111ab576040517f08c379a00000000000000000000000000000000000000000000000000000000081526004016111a290613d29565b60405180910390fd5b6003816040516111bb9190613a2c565b908152602001604051809103902060010160009054906101000a900460ff16611219576040517f08c379a000000000000000000000000000000000000000000000000000000000815260040161121090613d09565b60405180910390fd5b6040518060a001604052808573ffffffffffffffffffffffffffffffffffffffff16815260200184815260200183815260200182815260200160011515815250600260008673ffffffffffffffffffffffffffffffffffffffff1673ffffffffffffffffffffffffffffffffffffffff16815260200190815260200160002060008201518160000160006101000a81548173ffffffffffffffffffffffffffffffffffffffff021916908373ffffffffffffffffffffffffffffffffffffffff160217905550602082015181600101556040820151816002019080519060200190611305929190612bf8565b506060820151816003019080519060200190611322929190612bf8565b5060808201518160040160006101000a81548160ff0219169083151502179055509050506005816040516113569190613a2c565b9081526020016040518091039020849080600181540180825580915050600190039060005260206000200160009091909190916101000a81548173ffffffffffffffffffffffffffffffffffffffff021916908373ffffffffffffffffffffffffffffffffffffffff160217905550600a849080600181540180825580915050600190039060005260206000200160009091909190916101000a81548173ffffffffffffffffffffffffffffffffffffffff021916908373ffffffffffffffffffffffffffffffffffffffff16021790555050505050565b6000600260008373ffffffffffffffffffffffffffffffffffffffff1673ffffffffffffffffffffffffffffffffffffffff16815260200190815260200160002060040160009054906101000a900460ff169050919050565b600b60009054906101000a900473ffffffffffffffffffffffffffffffffffffffff1681565b600482805160208101820180518482526020830160208501208183528095505050505050818051602081018201805184825260208301602085012081835280955050505050506000915091505080600001805461150990614037565b80601f016020809104026020016040519081016040528092919081815260200182805461153590614037565b80156115825780601f1061155757610100808354040283529160200191611582565b820191906000526020600020905b81548152906001019060200180831161156557829003601f168201915b50505050509080600101805461159790614037565b80601f01602080910402602001604051908101604052809291908181526020018280546115c390614037565b80156116105780601f106115e557610100808354040283529160200191611610565b820191906000526020600020905b8154815290600101906020018083116115f357829003601f168201915b5050505050908060020160009054906101000a900460ff16905083565b6000803373ffffffffffffffffffffffffffffffffffffffff1673ffffffffffffffffffffffffffffffffffffffff16815260200190815260200160002060020160009054906101000a900460ff166116bb576040517f08c379a00000000000000000000000000000000000000000000000000000000081526004016116b290613cc9565b60405180910390fd5b6003836040516116cb9190613a2c565b908152602001604051809103902060010160009054906101000a900460ff16611729576040517f08c379a000000000000000000000000000000000000000000000000000000000815260040161172090613d89565b60405180910390fd5b6004836040516117399190613a2c565b9081526020016040518091039020826040516117559190613a2c565b908152602001604051809103902060020160009054906101000a900460ff16156117b4576040517f08c379a00000000000000000000000000000000000000000000000000000000081526004016117ab90613c69565b60405180910390fd5b6040518060600160405280838152602001828152602001600115158152506004846040516117e29190613a2c565b9081526020016040518091039020836040516117fe9190613a2c565b90815260200160405180910390206000820151816000019080519060200190611828929190612bf8565b506020820151816001019080519060200190611845929190612bf8565b5060408201518160020160006101000a81548160ff021916908315150217905550905050505050565b60026020528060005260406000206000915090508060000160009054906101000a900473ffffffffffffffffffffffffffffffffffffffff16908060010154908060020180546118bd90614037565b80601f01602080910402602001604051908101604052809291908181526020018280546118e990614037565b80156119365780601f1061190b57610100808354040283529160200191611936565b820191906000526020600020905b81548152906001019060200180831161191957829003601f168201915b50505050509080600301805461194b90614037565b80601f016020809104026020016040519081016040528092919081815260200182805461197790614037565b80156119c45780601f10611999576101008083540402835291602001916119c4565b820191906000526020600020905b8154815290600101906020018083116119a757829003601f168201915b5050505050908060040160009054906101000a900460ff16905085565b600160003373ffffffffffffffffffffffffffffffffffffffff1673ffffffffffffffffffffffffffffffffffffffff16815260200190815260200160002060020160009054906101000a900460ff16611a70576040517f08c379a0000000000000000000000000000000000000000000000000000000008152600401611a6790613c89565b60405180910390fd5b8051825114611ab4576040517f08c379a0000000000000000000000000000000000000000000000000000000008152600401611aab90613ca9565b60405180910390fd5b611abc612cc5565b868160000181905250858160200181905250848160400181905250828160600181905250818160800181905250600688604051611af99190613a2c565b90815260200160405180910390208190806001815401808255809150506001900390600052602060002090600502016000909190919091506000820151816000019080519060200190611b4d929190612bf8565b506020820151816001019080519060200190611b6a929190612bf8565b506040820151816002019080519060200190611b87929190612bf8565b506060820151816003019080519060200190611ba4929190612cf4565b506080820151816004019080519060200190611bc1929190612d41565b50505060005b8351811015611df557611bd8612de7565b826000015181600001819052508260200151816020018190525082604001518160400181905250848281518110611c38577f4e487b7100000000000000000000000000000000000000000000000000000000600052603260045260246000fd5b6020026020010151816060018181525050838281518110611c82577f4e487b7100000000000000000000000000000000000000000000000000000000600052603260045260246000fd5b602002602001015181608001901515908115158152505060078a604051611ca99190613a2c565b90815260200160405180910390206000878481518110611cf2577f4e487b7100000000000000000000000000000000000000000000000000000000600052603260045260246000fd5b602002602001015173ffffffffffffffffffffffffffffffffffffffff1673ffffffffffffffffffffffffffffffffffffffff1681526020019081526020016000208190806001815401808255809150506001900390600052602060002090600502016000909190919091506000820151816000019080519060200190611d7a929190612bf8565b506020820151816001019080519060200190611d97929190612bf8565b506040820151816002019080519060200190611db4929190612bf8565b506060820151816003015560808201518160040160006101000a81548160ff0219169083151502179055505050508080611ded9061409a565b915050611bc7565b505050505050505050565b6000803373ffffffffffffffffffffffffffffffffffffffff1673ffffffffffffffffffffffffffffffffffffffff16815260200190815260200160002060020160009054906101000a900460ff16611e8e576040517f08c379a0000000000000000000000000000000000000000000000000000000008152600401611e8590613cc9565b60405180910390fd5b600160008473ffffffffffffffffffffffffffffffffffffffff1673ffffffffffffffffffffffffffffffffffffffff16815260200190815260200160002060020160009054906101000a900460ff1615611f1e576040517f08c379a0000000000000000000000000000000000000000000000000000000008152600401611f1590613da9565b60405180910390fd5b600381604051611f2e9190613a2c565b908152602001604051809103902060010160009054906101000a900460ff16611f8c576040517f08c379a0000000000000000000000000000000000000000000000000000000008152600401611f8390613d09565b60405180910390fd5b604051806060016040528083815260200182815260200160011515815250600160008573ffffffffffffffffffffffffffffffffffffffff1673ffffffffffffffffffffffffffffffffffffffff1681526020019081526020016000206000820151816000019080519060200190612005929190612bf8565b506020820151816001019080519060200190612022929190612bf8565b5060408201518160020160006101000a81548160ff0219169083151502179055509050506009839080600181540180825580915050600190039060005260206000200160009091909190916101000a81548173ffffffffffffffffffffffffffffffffffffffff021916908373ffffffffffffffffffffffffffffffffffffffff160217905550505050565b600a81815481106120be57600080fd5b906000526020600020016000915054906101000a900473ffffffffffffffffffffffffffffffffffffffff1681565b600160205280600052604060002060009150905080600001805461211090614037565b80601f016020809104026020016040519081016040528092919081815260200182805461213c90614037565b80156121895780601f1061215e57610100808354040283529160200191612189565b820191906000526020600020905b81548152906001019060200180831161216c57829003601f168201915b50505050509080600101805461219e90614037565b80601f01602080910402602001604051908101604052809291908181526020018280546121ca90614037565b80156122175780601f106121ec57610100808354040283529160200191612217565b820191906000526020600020905b8154815290600101906020018083116121fa57829003601f168201915b5050505050908060020160009054906101000a900460ff16905083565b6000600160008373ffffffffffffffffffffffffffffffffffffffff1673ffffffffffffffffffffffffffffffffffffffff16815260200190815260200160002060020160009054906101000a900460ff169050919050565b60078380516020810182018051848252602083016020850120818352809550505050505060205281600052604060002081815481106122cb57600080fd5b906000526020600020906005020160009250925050508060000180546122f090614037565b80601f016020809104026020016040519081016040528092919081815260200182805461231c90614037565b80156123695780601f1061233e57610100808354040283529160200191612369565b820191906000526020600020905b81548152906001019060200180831161234c57829003601f168201915b50505050509080600101805461237e90614037565b80601f01602080910402602001604051908101604052809291908181526020018280546123aa90614037565b80156123f75780601f106123cc576101008083540402835291602001916123f7565b820191906000526020600020905b8154815290600101906020018083116123da57829003601f168201915b50505050509080600201805461240c90614037565b80601f016020809104026020016040519081016040528092919081815260200182805461243890614037565b80156124855780601f1061245a57610100808354040283529160200191612485565b820191906000526020600020905b81548152906001019060200180831161246857829003601f168201915b5050505050908060030154908060040160009054906101000a900460ff16905085565b6000606080600260008573ffffffffffffffffffffffffffffffffffffffff1673ffffffffffffffffffffffffffffffffffffffff16815260200190815260200160002060040160009054906101000a900460ff1661253c576040517f08c379a000000000000000000000000000000000000000000000000000000000815260040161253390613ce9565b60405180910390fd5b6000600260008673ffffffffffffffffffffffffffffffffffffffff1673ffffffffffffffffffffffffffffffffffffffff1681526020019081526020016000206040518060a00160405290816000820160009054906101000a900473ffffffffffffffffffffffffffffffffffffffff1673ffffffffffffffffffffffffffffffffffffffff1673ffffffffffffffffffffffffffffffffffffffff168152602001600182015481526020016002820180546125f890614037565b80601f016020809104026020016040519081016040528092919081815260200182805461262490614037565b80156126715780601f1061264657610100808354040283529160200191612671565b820191906000526020600020905b81548152906001019060200180831161265457829003601f168201915b5050505050815260200160038201805461268a90614037565b80601f01602080910402602001604051908101604052809291908181526020018280546126b690614037565b80156127035780601f106126d857610100808354040283529160200191612703565b820191906000526020600020905b8154815290600101906020018083116126e657829003601f168201915b505050505081526020016004820160009054906101000a900460ff1615151515815250509050806020015181604001518260600151935093509350509193909250565b60606007826040516127589190613a2c565b908152602001604051809103902060008473ffffffffffffffffffffffffffffffffffffffff1673ffffffffffffffffffffffffffffffffffffffff168152602001908152602001600020805480602002602001604051908101604052809291908181526020016000905b828210156129d057838290600052602060002090600502016040518060a00160405290816000820180546127f690614037565b80601f016020809104026020016040519081016040528092919081815260200182805461282290614037565b801561286f5780601f106128445761010080835404028352916020019161286f565b820191906000526020600020905b81548152906001019060200180831161285257829003601f168201915b5050505050815260200160018201805461288890614037565b80601f01602080910402602001604051908101604052809291908181526020018280546128b490614037565b80156129015780601f106128d657610100808354040283529160200191612901565b820191906000526020600020905b8154815290600101906020018083116128e457829003601f168201915b5050505050815260200160028201805461291a90614037565b80601f016020809104026020016040519081016040528092919081815260200182805461294690614037565b80156129935780601f1061296857610100808354040283529160200191612993565b820191906000526020600020905b81548152906001019060200180831161297657829003601f168201915b50505050508152602001600382015481526020016004820160009054906101000a900460ff161515151581525050815260200190600101906127c3565b50505050905092915050565b60008060003373ffffffffffffffffffffffffffffffffffffffff1673ffffffffffffffffffffffffffffffffffffffff1681526020019081526020016000206000018054612a2a90614037565b905014612a6c576040517f08c379a0000000000000000000000000000000000000000000000000000000008152600401612a6390613d69565b60405180910390fd5b6040518060600160405280838152602001828152602001600115158152506000803373ffffffffffffffffffffffffffffffffffffffff1673ffffffffffffffffffffffffffffffffffffffff1681526020019081526020016000206000820151816000019080519060200190612ae4929190612bf8565b506020820151816001019080519060200190612b01929190612bf8565b5060408201518160020160006101000a81548160ff0219169083151502179055509050505050565b600381805160208101820180518482526020830160208501208183528095505050505050600091509050806000018054612b6290614037565b80601f0160208091040260200160405190810160405280929190818152602001828054612b8e90614037565b8015612bdb5780601f10612bb057610100808354040283529160200191612bdb565b820191906000526020600020905b815481529060010190602001808311612bbe57829003601f168201915b5050505050908060010160009054906101000a900460ff16905082565b828054612c0490614037565b90600052602060002090601f016020900481019282612c265760008555612c6d565b82601f10612c3f57805160ff1916838001178555612c6d565b82800160010185558215612c6d579182015b82811115612c6c578251825591602001919060010190612c51565b5b509050612c7a9190612e18565b5090565b6040518060a00160405280600073ffffffffffffffffffffffffffffffffffffffff1681526020016000815260200160608152602001606081526020016000151581525090565b6040518060a0016040528060608152602001606081526020016060815260200160608152602001606081525090565b828054828255906000526020600020908101928215612d30579160200282015b82811115612d2f578251825591602001919060010190612d14565b5b509050612d3d9190612e18565b5090565b82805482825590600052602060002090601f01602090048101928215612dd65791602002820160005b83821115612da757835183826101000a81548160ff0219169083151502179055509260200192600101602081600001049283019260010302612d6a565b8015612dd45782816101000a81549060ff0219169055600101602081600001049283019260010302612da7565b505b509050612de39190612e18565b5090565b6040518060a00160405280606081526020016060815260200160608152602001600081526020016000151581525090565b5b80821115612e31576000816000905550600101612e19565b5090565b6000612e48612e4384613e4e565b613e29565b90508083825260208201905082856020860282011115612e6757600080fd5b60005b85811015612e975781612e7d8882612fb7565b845260208401935060208301925050600181019050612e6a565b5050509392505050565b6000612eb4612eaf84613e7a565b613e29565b90508083825260208201905082856020860282011115612ed357600080fd5b60005b85811015612f035781612ee9888261304a565b845260208401935060208301925050600181019050612ed6565b5050509392505050565b6000612f20612f1b84613ea6565b613e29565b90508083825260208201905082856020860282011115612f3f57600080fd5b60005b85811015612f6f5781612f558882613089565b845260208401935060208301925050600181019050612f42565b5050509392505050565b6000612f8c612f8784613ed2565b613e29565b905082815260208101848484011115612fa457600080fd5b612faf848285613ff5565b509392505050565b600081359050612fc681614344565b92915050565b600082601f830112612fdd57600080fd5b8135612fed848260208601612e35565b91505092915050565b600082601f83011261300757600080fd5b8135613017848260208601612ea1565b91505092915050565b600082601f83011261303157600080fd5b8135613041848260208601612f0d565b91505092915050565b6000813590506130598161435b565b92915050565b600082601f83011261307057600080fd5b8135613080848260208601612f79565b91505092915050565b60008135905061309881614372565b92915050565b6000602082840312156130b057600080fd5b60006130be84828501612fb7565b91505092915050565b600080604083850312156130da57600080fd5b60006130e885828601612fb7565b925050602083013567ffffffffffffffff81111561310557600080fd5b6131118582860161305f565b9150509250929050565b60008060006060848603121561313057600080fd5b600061313e86828701612fb7565b935050602084013567ffffffffffffffff81111561315b57600080fd5b6131678682870161305f565b925050604084013567ffffffffffffffff81111561318457600080fd5b6131908682870161305f565b9150509250925092565b600080600080608085870312156131b057600080fd5b60006131be87828801612fb7565b94505060206131cf87828801613089565b935050604085013567ffffffffffffffff8111156131ec57600080fd5b6131f88782880161305f565b925050606085013567ffffffffffffffff81111561321557600080fd5b6132218782880161305f565b91505092959194509250565b60006020828403121561323f57600080fd5b600082013567ffffffffffffffff81111561325957600080fd5b6132658482850161305f565b91505092915050565b60008060006060848603121561328357600080fd5b600084013567ffffffffffffffff81111561329d57600080fd5b6132a98682870161305f565b93505060206132ba86828701612fb7565b92505060406132cb86828701613089565b9150509250925092565b600080604083850312156132e857600080fd5b600083013567ffffffffffffffff81111561330257600080fd5b61330e8582860161305f565b925050602083013567ffffffffffffffff81111561332b57600080fd5b6133378582860161305f565b9150509250929050565b60008060006060848603121561335657600080fd5b600084013567ffffffffffffffff81111561337057600080fd5b61337c8682870161305f565b935050602084013567ffffffffffffffff81111561339957600080fd5b6133a58682870161305f565b925050604084013567ffffffffffffffff8111156133c257600080fd5b6133ce8682870161305f565b9150509250925092565b600080600080600080600060e0888a0312156133f357600080fd5b600088013567ffffffffffffffff81111561340d57600080fd5b6134198a828b0161305f565b975050602088013567ffffffffffffffff81111561343657600080fd5b6134428a828b0161305f565b965050604088013567ffffffffffffffff81111561345f57600080fd5b61346b8a828b0161305f565b955050606088013567ffffffffffffffff81111561348857600080fd5b6134948a828b0161305f565b945050608088013567ffffffffffffffff8111156134b157600080fd5b6134bd8a828b01612fcc565b93505060a088013567ffffffffffffffff8111156134da57600080fd5b6134e68a828b01613020565b92505060c088013567ffffffffffffffff81111561350357600080fd5b61350f8a828b01612ff6565b91505092959891949750929550565b6000806040838503121561353157600080fd5b600083013567ffffffffffffffff81111561354b57600080fd5b6135578582860161305f565b925050602061356885828601613089565b9150509250929050565b60006020828403121561358457600080fd5b600061359284828501613089565b91505092915050565b60006135a7838361390d565b905092915050565b60006135bb8383613991565b905092915050565b6135cc81613fad565b82525050565b6135db81613fad565b82525050565b60006135ec82613f23565b6135f68185613f5e565b93508360208202850161360885613f03565b8060005b858110156136445784840389528151613625858261359b565b945061363083613f44565b925060208a0199505060018101905061360c565b50829750879550505050505092915050565b600061366182613f2e565b61366b8185613f6f565b93508360208202850161367d85613f13565b8060005b858110156136b9578484038952815161369a85826135af565b94506136a583613f51565b925060208a01995050600181019050613681565b50829750879550505050505092915050565b6136d481613fbf565b82525050565b6136e381613fbf565b82525050565b60006136f482613f39565b6136fe8185613f80565b935061370e818560208601614004565b61371781614170565b840191505092915050565b600061372d82613f39565b6137378185613f91565b9350613747818560208601614004565b61375081614170565b840191505092915050565b600061376682613f39565b6137708185613fa2565b9350613780818560208601614004565b80840191505092915050565b6000613799601683613f91565b91506137a482614181565b602082019050919050565b60006137bc601483613f91565b91506137c7826141aa565b602082019050919050565b60006137df601183613f91565b91506137ea826141d3565b602082019050919050565b6000613802600c83613f91565b915061380d826141fc565b602082019050919050565b6000613825601183613f91565b915061383082614225565b602082019050919050565b6000613848601983613f91565b91506138538261424e565b602082019050919050565b600061386b601a83613f91565b915061387682614277565b602082019050919050565b600061388e601983613f91565b9150613899826142a0565b602082019050919050565b60006138b1601883613f91565b91506138bc826142c9565b602082019050919050565b60006138d4601a83613f91565b91506138df826142f2565b602082019050919050565b60006138f7601a83613f91565b91506139028261431b565b602082019050919050565b600060a083016000830151848203600086015261392a82826136e9565b9150506020830151848203602086015261394482826136e9565b9150506040830151848203604086015261395e82826136e9565b91505060608301516139736060860182613a0e565b50608083015161398660808601826136cb565b508091505092915050565b600060a0830160008301516139a960008601826135c3565b5060208301516139bc6020860182613a0e565b50604083015184820360408601526139d482826136e9565b915050606083015184820360608601526139ee82826136e9565b9150506080830151613a0360808601826136cb565b508091505092915050565b613a1781613feb565b82525050565b613a2681613feb565b82525050565b6000613a38828461375b565b915081905092915050565b6000602082019050613a5860008301846135d2565b92915050565b600060a082019050613a7360008301886135d2565b613a806020830187613a1d565b8181036040830152613a928186613722565b90508181036060830152613aa68185613722565b9050613ab560808301846136da565b9695505050505050565b60006020820190508181036000830152613ad981846135e1565b905092915050565b60006020820190508181036000830152613afb8184613656565b905092915050565b6000602082019050613b1860008301846136da565b92915050565b60006020820190508181036000830152613b388184613722565b905092915050565b60006040820190508181036000830152613b5a8185613722565b9050613b6960208301846136da565b9392505050565b60006060820190508181036000830152613b8a8186613722565b90508181036020830152613b9e8185613722565b9050613bad60408301846136da565b949350505050565b60006060820190508181036000830152613bcf8186613722565b90508181036020830152613be38185613722565b90508181036040830152613bf78184613722565b9050949350505050565b600060a0820190508181036000830152613c1b8188613722565b90508181036020830152613c2f8187613722565b90508181036040830152613c438186613722565b9050613c526060830185613a1d565b613c5f60808301846136da565b9695505050505050565b60006020820190508181036000830152613c828161378c565b9050919050565b60006020820190508181036000830152613ca2816137af565b9050919050565b60006020820190508181036000830152613cc2816137d2565b9050919050565b60006020820190508181036000830152613ce2816137f5565b9050919050565b60006020820190508181036000830152613d0281613818565b9050919050565b60006020820190508181036000830152613d228161383b565b9050919050565b60006020820190508181036000830152613d428161385e565b9050919050565b60006020820190508181036000830152613d6281613881565b9050919050565b60006020820190508181036000830152613d82816138a4565b9050919050565b60006020820190508181036000830152613da2816138c7565b9050919050565b60006020820190508181036000830152613dc2816138ea565b9050919050565b6000602082019050613dde6000830184613a1d565b92915050565b6000606082019050613df96000830186613a1d565b8181036020830152613e0b8185613722565b90508181036040830152613e1f8184613722565b9050949350505050565b6000613e33613e44565b9050613e3f8282614069565b919050565b6000604051905090565b600067ffffffffffffffff821115613e6957613e68614141565b5b602082029050602081019050919050565b600067ffffffffffffffff821115613e9557613e94614141565b5b602082029050602081019050919050565b600067ffffffffffffffff821115613ec157613ec0614141565b5b602082029050602081019050919050565b600067ffffffffffffffff821115613eed57613eec614141565b5b613ef682614170565b9050602081019050919050565b6000819050602082019050919050565b6000819050602082019050919050565b600081519050919050565b600081519050919050565b600081519050919050565b6000602082019050919050565b6000602082019050919050565b600082825260208201905092915050565b600082825260208201905092915050565b600082825260208201905092915050565b600082825260208201905092915050565b600081905092915050565b6000613fb882613fcb565b9050919050565b60008115159050919050565b600073ffffffffffffffffffffffffffffffffffffffff82169050919050565b6000819050919050565b82818337600083830152505050565b60005b83811015614022578082015181840152602081019050614007565b83811115614031576000848401525b50505050565b6000600282049050600182168061404f57607f821691505b6020821081141561406357614062614112565b5b50919050565b61407282614170565b810181811067ffffffffffffffff8211171561409157614090614141565b5b80604052505050565b60006140a582613feb565b91507fffffffffffffffffffffffffffffffffffffffffffffffffffffffffffffffff8214156140d8576140d76140e3565b5b600182019050919050565b7f4e487b7100000000000000000000000000000000000000000000000000000000600052601160045260246000fd5b7f4e487b7100000000000000000000000000000000000000000000000000000000600052602260045260246000fd5b7f4e487b7100000000000000000000000000000000000000000000000000000000600052604160045260246000fd5b6000601f19601f8301169050919050565b7f5375626a65637420616c72656164792061646465642e00000000000000000000600082015250565b7f4e6f74206120666163756c7479206d656d626572000000000000000000000000600082015250565b7f4d69736d61746368656420617272617973000000000000000000000000000000600082015250565b7f4e6f7420616e2061646d696e0000000000000000000000000000000000000000600082015250565b7f53747564656e74206e6f7420666f756e64000000000000000000000000000000600082015250565b7f4465706172746d656e7420646f6573206e6f7420657869737400000000000000600082015250565b7f53747564656e7420616c72656164792072656769737465726564000000000000600082015250565b7f4465706172746d656e7420616c72656164792065786973747300000000000000600082015250565b7f41646d696e20616c726561647920726567697374657265640000000000000000600082015250565b7f4465706172746d656e7420646f6573206e6f742065786973742e000000000000600082015250565b7f466163756c747920616c72656164792072656769737465726564000000000000600082015250565b61434d81613fad565b811461435857600080fd5b50565b61436481613fbf565b811461436f57600080fd5b50565b61437b81613feb565b811461438657600080fd5b5056fea2646970667358221220a75d3cdd7859ebfc959f03ffa67d707e7ee7fb5d37e1ec2f35e8e04112b4268164736f6c63430008020033",
  "immutableReferences": {},
  "source": "// SPDX-License-Identifier: MIT\r\npragma solidity ^0.8.0;\r\n\r\ncontract AttendanceSystem {\r\n    struct Admin {\r\n        string name;\r\n        string college;\r\n        bool exists;\r\n    }\r\n    \r\n    struct Faculty {\r\n        string name;\r\n        string department;\r\n        bool exists;\r\n    }\r\n    \r\n    struct Student {\r\n        address studentAddress;\r\n        uint studentId;\r\n        string name;\r\n        string department;\r\n        bool exists;\r\n    }\r\n    \r\n    struct Department {\r\n        string name;\r\n        bool exists;\r\n    }\r\n\r\n    struct Subject {\r\n        string subCode;\r\n        string subName;\r\n        bool exists;\r\n    }\r\n    \r\n    struct AttendanceRecord {\r\n        string subjectCode;\r\n        string subjectName;\r\n        string lectureTime;\r\n        uint[] studentIds;\r\n        bool[] attendanceStatuses; // Attendance status of each student (true = present, false = absent)\r\n    }\r\n\r\n    struct PerStudentAttendance {\r\n        string studentSubjectCode;\r\n        string studentSubjectName;\r\n        string studentLectureTime;\r\n        uint studentId;\r\n        bool studentAttendanceStatus;\r\n    }\r\n    \r\n    mapping(address => Admin) public admins;\r\n    mapping(address => Faculty) public faculties;\r\n    mapping(address => Student) public students;\r\n    mapping(string => Department) public departments;\r\n    mapping(string => mapping(string => Subject)) public subjects;\r\n    mapping(string => address[]) public departmentStudents;\r\n    mapping(string => AttendanceRecord[]) public studentAttendance;\r\n    mapping(string => mapping(address => PerStudentAttendance[])) public perStudentAttendances;\r\n\r\n    string[] public departmentKeys;\r\n    address[] public facultyAddresses;\r\n    address[] public studentAddresses;\r\n    \r\n    address public owner;\r\n    \r\n    constructor() {\r\n        owner = msg.sender;\r\n        admins[msg.sender] = Admin(\"Super Admin\", \"\", true);\r\n    }\r\n    \r\n    modifier onlyAdmin() {\r\n        require(admins[msg.sender].exists, \"Not an admin\");\r\n        _;\r\n    }\r\n    \r\n    function isAdmin(address account) public view returns (bool) {\r\n        return admins[account].exists;\r\n    }\r\n    \r\n    function isFaculty(address account) public view returns (bool) {\r\n        return faculties[account].exists;\r\n    }\r\n    \r\n    function isStudent(address account) public view returns (bool) {\r\n        return students[account].exists;\r\n    }\r\n\r\n    function registerAdmin(string memory _name, string memory _college) public {\r\n        require(bytes(admins[msg.sender].name).length == 0, \"Admin already registered\");\r\n        admins[msg.sender] = Admin(_name, _college, true);\r\n    }\r\n\r\n    function addDepartment(string memory deptCode, string memory deptName) public onlyAdmin {\r\n        require(!departments[deptCode].exists, \"Department already exists\");\r\n        departments[deptCode] = Department(deptName, true);\r\n        departmentKeys.push(deptCode);\r\n    }\r\n\r\n    function addSubject(string memory deptCode, string memory subCode, string memory subName) public onlyAdmin {\r\n        require(departments[deptCode].exists, \"Department does not exist.\");\r\n        require(!subjects[deptCode][subCode].exists, \"Subject already added.\");\r\n        subjects[deptCode][subCode] = Subject(subCode, subName, true);\r\n    }\r\n\r\n    function registerFaculty(address facultyAddress, string memory facultyName, string memory facultyDept) public onlyAdmin {\r\n        require(!faculties[facultyAddress].exists, \"Faculty already registered\");\r\n        require(departments[facultyDept].exists, \"Department does not exist\");\r\n        faculties[facultyAddress] = Faculty(facultyName, facultyDept, true);\r\n        facultyAddresses.push(facultyAddress);\r\n    }\r\n\r\n    function registerStudent(address studentAddress, uint studentId, string memory studentName, string memory studentDept) public onlyAdmin {\r\n        require(!students[studentAddress].exists, \"Student already registered\");\r\n        require(departments[studentDept].exists, \"Department does not exist\");\r\n        students[studentAddress] = Student(studentAddress, studentId, studentName, studentDept, true);\r\n        departmentStudents[studentDept].push(studentAddress);\r\n        studentAddresses.push(studentAddress);\r\n    }\r\n\r\n    function getDepartmentCount() public view returns (uint) {\r\n        return departmentKeys.length;\r\n    }\r\n\r\n    function getFacultyCount() public view returns (uint) {\r\n        return facultyAddresses.length;\r\n    }\r\n\r\n    function getStudentCount() public view returns (uint) {\r\n        return studentAddresses.length;\r\n    }\r\n    \r\n    function getStudentsByDepartment(string memory departmentCode) public view returns (Student[] memory) {\r\n        address[] memory deptStudentAddresses = departmentStudents[departmentCode];\r\n        Student[] memory studentList = new Student[](deptStudentAddresses.length);\r\n        for (uint i = 0; i < deptStudentAddresses.length; i++) {\r\n            studentList[i] = students[deptStudentAddresses[i]];\r\n        }\r\n        return studentList;\r\n    }\r\n    \r\n    function markAttendance(\r\n        string memory deptCode,\r\n        string memory subjectCode, \r\n        string memory subjectName, \r\n        string memory lectureTime,\r\n        address[] memory studentAddrs, // <-- use addresses here\r\n        uint[] memory studentIds,\r\n        bool[] memory statuses\r\n    ) public  {\r\n        require(faculties[msg.sender].exists, \"Not a faculty member\");\r\n        require(studentIds.length == statuses.length, \"Mismatched arrays\");\r\n        \r\n        // Create a new attendance record\r\n        AttendanceRecord memory newRecord;\r\n        newRecord.subjectCode = subjectCode;\r\n        newRecord.subjectName = subjectName;\r\n        newRecord.lectureTime = lectureTime;\r\n        newRecord.studentIds = studentIds;\r\n        newRecord.attendanceStatuses = statuses;\r\n        studentAttendance[deptCode].push(newRecord);\r\n        \r\n        for (uint i = 0; i < studentIds.length; i++) {\r\n            PerStudentAttendance memory newStudentAttendance;\r\n            newStudentAttendance.studentSubjectCode = newRecord.subjectCode;\r\n            newStudentAttendance.studentSubjectName = newRecord.subjectName;\r\n            newStudentAttendance.studentLectureTime = newRecord.lectureTime;\r\n            newStudentAttendance.studentId = studentIds[i];\r\n            newStudentAttendance.studentAttendanceStatus = statuses[i];\r\n            perStudentAttendances[deptCode][studentAddrs[i]].push(newStudentAttendance);\r\n        }\r\n    }\r\n\r\n    function getStudentDetails(address studentAddress) public view returns (uint, string memory, string memory) {\r\n        require(students[studentAddress].exists, \"Student not found\");\r\n        Student memory student = students[studentAddress];\r\n        return (student.studentId, student.name, student.department);\r\n    }\r\n    \r\n    function getStudentAttendance(address studentAddress, string memory deptCode) public view returns (PerStudentAttendance[] memory) {\r\n        return perStudentAttendances[deptCode][studentAddress];\r\n    }\r\n}",
  "sourcePath": "C:\\blockchain_lab\\test2\\attendance\\src\\contracts\\Attendance.sol",
  "compiler": {
    "name": "solc",
    "version": "0.8.2+commit.661d1103.Emscripten.clang"
  },
  "schemaVersion": "3.4.16",
  "updatedAt": "2025-04-24T09:03:49.248Z",
  "networkType": "ethereum",
  "devdoc": {
    "kind": "dev",
    "methods": {},
    "version": 1
  },
  "userdoc": {
    "kind": "user",
    "methods": {},
    "version": 1
  }
}